:100000000C9463000C948B000C948B000C948B006C
:100010000C948B000C948B000C948B000C948B0034
:100020000C948B000C948B000C948B000C948B0024
:100030000C948B000C948B000C948B000C948B0014
:100040000C9419040C948B000C945B050C949E0585
:100050000C948B000C948B000C948B000C948B00F4
:100060000C948B000C948B00000000070002010030
:100070000003040600000000000000000102040864
:100080001020408001020408102001020408102002
:10009000040404040404040402020202020203032E
:1000A00003030303000000002300260029000000D2
:1000B0000000250028002B0000000000240027007D
:1000C0002A007101610611241FBECFEFD8E0DEBF08
:1000D000CDBF11E0A0E0B1E0E6EFFDE002C0059089
:1000E0000D92A231B107D9F722E0A2E1B1E001C03F
:1000F0001D92A031B207E1F710E0C3E6D0E004C0E2
:100100002197FE010E94F306C136D107C9F70E946C
:10011000B4040C94F9060C940000E5E2F1E01182BD
:10012000108215821482118610861586148621E0AD
:1001300030E0318B208B82E090E0958B848B918F27
:10014000808F358F248F31A320A395A384A383E0D0
:1001500090E091A780A795A784A791AB80AB95ABC2
:1001600084AB0895EF92FF921F93CF93DF93C5E284
:10017000D1E010E0EE24EA94F12C88819981892B5A
:1001800089F061E0812F0E94840388819981019721
:1001900019F4FB82EA8206C01B821A8260E0812F7A
:1001A0000E94C0031F5F24961E3039F7DF91CF9164
:1001B0001F91FF90EF900895660F771FDC01A60F47
:1001C000B71F2D913C911197440F551FFC01E40F6F
:1001D000F51F808191818D939C93318320830895B5
:1001E000AF92BF92CF92DF92EF92FF920F931F9345
:1001F000CF93DF936C015B0101E010E00A151B0552
:10020000D0F47801EE0CFF1CEC0CFD1CE801BE01E3
:10021000F70120813181929182917F01281739075E
:1002200038F42197AE01C6010E94DC00209779F7CF
:100230000F5F1F4FE3CFDF91CF911F910F91FF9081
:10024000EF90DF90CF90BF90AF90089594E0899F9A
:10025000F0011124EB5DFE4F208131812330310507
:1002600019F462810C94C0032230310521F46281BB
:1002700073810C94FC0208950F931F93CF93C82FA2
:100280008B0161E00E94C003C8010E946F0460E01E
:100290008C2FCF911F910F910C94C0036F3F41F0B1
:1002A0009AE0699FB0011124685A7D4F0C943C017B
:1002B00008950F931F93CF9305E211E0C0E0F8017A
:1002C00080819181019721F462818C2F0E944E01DF
:1002D000CF5F0C5F1F4FCA3091F7CF911F910F91E5
:1002E00008950E946304609321017093220180931A
:1002F000230190932401089540E056E960E070E006
:1003000086E691E00E94D90586E691E00E940D05FF
:100310000E948D000C94B200CF93DF93EB01AB01F0
:10032000440F452F441F550B4770552740688F7069
:1003300098E0899F90011124BA01622B732B86E605
:1003400091E00E941805BE016F77772786E691E05D
:10035000DF91CF910C9418058F929F92AF92BF922C
:10036000CF92DF92EF92FF921F93CF93DF93CDB79F
:10037000DEB766970FB6F894DEBF0FBECDBFCE01D5
:1003800001967C015C0110E04E0197E1890E911C01
:10039000CE010D966C01812F0E94DF02F601819340
:1003A00091936F01E815F905B1F765E070E0CE01B2
:1003B0000D960E94F00089899A89F50181939193A5
:1003C0005F011F5F163021F710E0F7016191719115
:1003D0007F01812F0E948C011F5F1630B1F782E0F0
:1003E0000E94F003009711F08FEF93E0BC0186E0CC
:1003F0000E948C0183E00E94F003009711F08FEFC0
:1004000093E0BC0187E00E948C0166960FB6F894D9
:10041000DEBF0FBECDBFDF91CF911F91FF90EF9058
:10042000DF90CF90BF90AF909F908F9008950E94E3
:10043000B2000E94AC010E9463046093210170939A
:100440002201809323019093240108950F931F9319
:100450000E94630400912101109122012091230147
:1004600030912401DC01CB01801B910BA20BB30B5B
:10047000893E9340A105B10520F01F910F910C9486
:1004800017021F910F91089586E691E00E94C10422
:10049000892B09F451C08091140181110AC086E6AC
:1004A00091E00E94ED048093130187FF12C081E068
:1004B0000BC0813071F486E691E00E94ED048093D8
:1004C000120187FD04C082E08093140102C01092E3
:1004D000140180911401823089F50E9463046093B5
:1004E0002101709322018093230190932401209194
:1004F0001301822F90E033E0959587953A95E1F7C7
:100500008F70277090E8299F90011124909112011B
:100510009F77292B94E0899FF0011124EB5DFE4F1A
:10052000428153814217530721F0338322830E9473
:1005300026011092140108950C94260208950F9339
:100540001F9380911901811114C089E191E00E94EB
:10055000C406892B71F00E946304609315017093A7
:100560001601809317019093180189E191E00E9490
:10057000CD060E946304009115011091160120918F
:10058000170130911801DC01CB01801B910BA20BEC
:10059000B30B4497A105B10570F00E9459010E9468
:1005A000AC010E946304609315017093160180935F
:1005B0001701909318011F910F910C9444028E30F3
:1005C00008F08E5087702091000190E4299F9001DF
:1005D0001124822B80937C0080917A008064809328
:1005E0007A0080917A0086FDFCCF8091780020917E
:1005F000790090E0922B08951F93CF93DF93182FEB
:10060000EB0161E00E948403209711F460E004C0D4
:10061000CF3FD10539F461E0812FDF91CF911F9158
:100620000C94C003E12FF0E0E859FF4FE491E33070
:10063000F9F048F4E130B9F0E230A1F584B5806218
:1006400084BDC8BD34C0E630E9F0E73019F1E430CC
:1006500049F580918000806280938000D0938B0068
:10066000C0938A0024C084B5806884BDC7BD1FC004
:1006700080918000806880938000D0938900C0932F
:10068000880015C08091B00080688093B000C0934E
:10069000B3000DC08091B00080628093B000C09321
:1006A000B40005C0C038D1050CF0B5CFAFCFDF9195
:1006B000CF911F910895833081F028F4813099F013
:1006C0008230A1F008958630A9F08730B9F08430E7
:1006D000D1F4809180008F7D03C0809180008F775E
:1006E00080938000089584B58F7702C084B58F7D94
:1006F00084BD08958091B0008F7703C08091B000D1
:100700008F7D8093B0000895CF93DF9390E0FC013C
:10071000E458FF4F2491FC01E057FF4F8491882358
:1007200061F190E0880F991FFC01E854FF4FC591DB
:10073000D491FC01E255FF4FA591B491611109C01C
:100740009FB7F8948881209582238883EC912E238B
:100750000BC0623061F49FB7F8943881822F809586
:1007600083238883EC912E2B2C939FBF06C08FB7D9
:10077000F894E8812E2B28838FBFDF91CF910895C5
:100780001F93CF93DF93282F30E0F901E859FF4FF3
:100790008491F901E458FF4FD491F901E057FF4FDC
:1007A000C491CC23C9F0162F81110E945B03EC2F5A
:1007B000F0E0EE0FFF1FE255FF4FA591B4918FB708
:1007C000F894111105C09C91ED2FE095E92302C02A
:1007D000EC91ED2BEC938FBFDF91CF911F9108959A
:1007E000CF93DF93282F30E0F901E859FF4F849130
:1007F000F901E458FF4FD491F901E057FF4FC4913C
:10080000CC2391F081110E945B03EC2FF0E0EE0FFE
:10081000FF1FEC55FF4FA591B491EC91ED2381E0C2
:1008200090E021F480E002C080E090E0DF91CF9181
:1008300008951F920F920FB60F9211242F933F939A
:100840008F939F93AF93BF9380915E0190915F01CF
:10085000A0916001B091610130915D0123E0230F0F
:100860002D3720F40196A11DB11D05C026E8230FE8
:100870000296A11DB11D20935D0180935E019093AE
:100880005F01A0936001B09361018091620190913A
:100890006301A0916401B09165010196A11DB11D94
:1008A0008093620190936301A0936401B09365010A
:1008B000BF91AF919F918F913F912F910F900FBE5C
:1008C0000F901F9018952FB7F89460915E0170916A
:1008D0005F0180916001909161012FBF08950197A0
:1008E00039F0880F991F880F991F02970197F1F728
:1008F0000895789484B5826084BD84B5816084BD98
:1009000085B5826085BD85B5816085BDEEE6F0E088
:10091000808181608083E1E8F0E0108280818260E4
:100920008083808181608083E0E8F0E08081816065
:100930008083E1EBF0E0808184608083E0EBF0E095
:10094000808181608083EAE7F0E080818460808339
:1009500080818260808380818160808380818068E3
:1009600080831092C10008950E9479040E947C0146
:10097000C5E9D5E00E949F022097E1F30E9495050A
:10098000F9CFFC0124853585F901E05CFF4F8081BA
:100990009181329620813181821B930B8F7399272D
:1009A0000895DC011C96ED91FC911D97DF01A05C80
:1009B000BF4F2D913C91119712968D919C9111975B
:1009C0002817390739F08D919C91E80FF91F808124
:1009D00090E008958FEF9FEF0895FC01A485B58501
:1009E000FD01E05CFF4F2081318132968081918151
:1009F0002817390779F080819181A80FB91F8C9150
:100A0000208131812F5F3F4F2F7333273183208324
:100A100090E008958FEF9FEF0895FC0181A1882356
:100A200029F0A489B5898C9186FFFBCF11A2089586
:100A30000F931F93CF93DF93FC01A685B7858D019C
:100A4000005C1F4FE8018881998101968F73992777
:100A5000AD014E5B5F4FEA01288139818217930710
:100A6000D1F3E80128813981A20FB31F6C93A685C9
:100A7000B785A05CBF4F11969C938E93A689B789CA
:100A80002C9181E090E0078C02C0880F991F0A9496
:100A9000E2F7822B8C9381E081A30488F589E02D15
:100AA00080818064808381E090E0DF91CF911F910D
:100AB0000F91089508951F920F920FB60F9211246F
:100AC0002F934F935F938F939F93EF93FF93809117
:100AD000C00082FD1CC02091C60080910C02909144
:100AE0000D0201968F73992740910E0250910F02CB
:100AF0008417950771F0E0910C02F0910D02E45318
:100B0000FE4F208390930D0280930C0202C08091CF
:100B1000C600FF91EF919F918F915F914F912F911F
:100B20000F900FBE0F901F90189586E691E00E94DF
:100B3000C104892B11F00C945A0508951F920F924D
:100B40000FB60F9211242F933F938F939F93EF93A0
:100B5000FF932091C8013091C9018091CA01909101
:100B6000CB012817390731F48091C1008F7D809324
:100B7000C10014C0E091CA01F091CB01E857FE4FCB
:100B800020818091CA019091CB0101968F739927A2
:100B90009093CB018093CA012093C600FF91EF91FF
:100BA0009F918F913F912F910F900FBE0F901F90AB
:100BB0001895CF92DF92EF92FF920F931F93CF93EE
:100BC000DF93EC016A017B014115514E610571050E
:100BD00009F1EC89FD8981E090E008A002C0880F4E
:100BE000991F0A94E2F7808360E079E08DE390E05A
:100BF000A70196010E94D10689019A0101501109AD
:100C00002109310936952795179507959801011502
:100C10001041A8F0EC89FD89108260E874E88EE14B
:100C200090E0A70196010E94D106DA01C90101975F
:100C3000A109B109B695A795979587959C01E88973
:100C4000F9893083EA89FB89208319A2EE89FF891B
:100C5000408181E090E09C010C8C02C0220F331F88
:100C60000A94E2F7242B2083EE89FF8940819C01BE
:100C70000D8C02C0220F331F0A94E2F7242B20832D
:100C8000EE89FF8940819C010E8C02C0220F331F28
:100C90000A94E2F7242B2083EE89FF8920810F8CB0
:100CA00002C0880F991F0A94E2F7809582238083FF
:100CB000DF91CF911F910F91FF90EF90DF90CF9038
:100CC0000895E6E6F1E01382128288EE93E0A0E058
:100CD000B0E084839583A683B78385E091E0918318
:100CE00080838CEC91E09587848788E891E09787F2
:100CF000868785EC90E0918B808B84EC90E0938BE1
:100D0000828B80EC90E0958B848B81EC90E0978BCC
:100D1000868B82EC90E0918F808F86EC90E0938FB1
:100D2000828F84E0848F83E0858F87E0868F85E0E3
:100D3000878F81E080A30895CF92DF92EF92FF9298
:100D40000F931F93CF93DF936C01EB017B01E40EB4
:100D5000F51E00E010E0CE15DF0561F06991D601C7
:100D6000ED91FC910190F081E02DC6010995080FED
:100D7000191FF1CFC801DF91CF911F910F91FF9003
:100D8000EF90DF90CF900895FC0181E090E020810A
:100D9000222311F080E090E0089521E0FC012083FF
:100DA0000895A1E21A2EAA1BBB1BFD010DC0AA1FAC
:100DB000BB1FEE1FFF1FA217B307E407F50720F0C4
:100DC000A21BB30BE40BF50B661F771F881F991F3F
:100DD0001A9469F760957095809590959B01AC0188
:100DE000BD01CF010895EE0FFF1F0590F491E02D96
:060DF0000994F894FFCF06
:100DF600010000000018059C06C104ED04D1040D95
:020E06000500E5
:00000001FF
