:100000000C9435000C945D000C945D000C9445023A
:100010000C9445020C9445020C945D000C945D0018
:100020000C945D000C945D000C945D000C945D00DC
:100030000C945D000C945D000C945D000C945D00CC
:100040000C94FB010C945D000C94C9010C94A30169
:100050000C945D000C945D000C945D000C945D00AC
:100060000C945D000C945D004F0211241FBECFEF75
:10007000D8E0DEBFCDBF21E0A0E2B1E001C01D921B
:10008000AD3DB207E1F711E0A0E0B1E0E0E8FAE051
:1000900002C005900D92A032B107D9F710E0C5E378
:1000A000D0E004C02197FE010E940604C433D107AA
:1000B000C9F70E94BB020C943E050C940000CF923D
:1000C000DF92EF92FF920F931F93CF93DF936C0118
:1000D0007A018B01C0E0D0E0CE15DF0589F0D801B0
:1000E0006D918D01D601ED91FC910190F081E02D93
:1000F000C6010995892B11F47E0102C02196ECCF2F
:10010000C701DF91CF911F910F91FF90EF90DF908A
:10011000CF900895FC01538D448D252F30E0842F1E
:1001200090E0821B930B541710F0CF96089501971F
:100130000895FC01918D828D981761F0828DDF0109
:10014000A80FB11D5D968C91928D9F5F9F73928FCA
:1001500090E008958FEF9FEF0895FC01918D828DBF
:10016000981731F0828DE80FF11D858D90E008958C
:100170008FEF9FEF0895FC01918D228D892F90E0E4
:10018000805C9F4F821B91098F73992708958BE2A2
:1001900091E00E94BB0021E0892B09F420E0822F2E
:1001A0000895FC01848DDF01A80FB11DA35ABF4F34
:1001B0002C91848D90E001968F739927848FA68966
:1001C000B7892C93A089B1898C9180648C93938D8D
:1001D000848D981306C00288F389E02D80818F7D7D
:1001E00080830895EF92FF920F931F93CF93DF9335
:1001F000EC0181E0888F9B8D8C8D981305C0E88978
:10020000F989808185FD24C0F62E0B8D10E00F5FEB
:100210001F4F0F731127E02E8C8DE8120CC00FB604
:1002200007FCFACFE889F989808185FFF5CFCE01F7
:100230000E94D100F1CF8B8DFE01E80FF11DE35A32
:10024000FF4FF0820B8FEA89FB898081806207C0B3
:10025000EE89FF896083E889F989808180648083E1
:1002600081E090E0DF91CF911F910F91FF90EF908F
:100270000895CF93DF93EC01888D8823C9F0EA8934
:10028000FB89808185FD05C0A889B9898C9186FD8F
:100290000FC00FB607FCF5CF808185FFF2CFA8898C
:1002A000B9898C9185FFEDCFCE010E94D100E7CFB7
:1002B000DF91CF91089580E090E0892B29F00E9492
:1002C000C70081110C9400000895089580E090E02B
:1002D0000895DC0112968D919C911397DC01ED91AC
:1002E000FC910284F385E02D0994DC0112968D9136
:1002F0009C911397DC01ED91FC910084F185E02D38
:1003000009940E943905CF93DF93813691F08E379F
:10031000B9F4C1EFD3E0CE010E94FE03682F8BE257
:1003200091E00E94F2002196C11584E0D80799F768
:1003300007C061E68BE291E0DF91CF910C94F2006F
:10034000DF91CF9108951F920F920FB60F92112453
:100350002F933F934F935F936F937F938F939F93CD
:10036000AF93BF93EF93FF938BE291E00E94D10094
:10037000FF91EF91BF91AF919F918F917F916F917D
:100380005F914F913F912F910F900FBE0F901F9053
:1003900018951F920F920FB60F9211242F938F93DF
:1003A0009F93EF93FF93E0913B01F0913C0180819B
:1003B000E0914101F091420182FD12C09081809153
:1003C00044018F5F8F7320914501821751F0E091B6
:1003D0004401F0E0E55DFE4F958F8093440101C03C
:1003E0008081FF91EF919F918F912F910F900FBE80
:1003F0000F901F9018951F920F920FB60F92112415
:100400002F933F938F939F93AF93BF938091270137
:1004100090912801A0912901B0912A0130912601E3
:1004200023E0230F2D3720F40196A11DB11D05C037
:1004300026E8230F0296A11DB11D2093260180936B
:10044000270190932801A0932901B0932A0180915C
:10045000220190912301A0912401B09125010196E0
:10046000A11DB11D8093220190932301A09324012B
:10047000B0932501BF91AF919F918F913F912F91A3
:100480000F900FBE0F901F9018951F920F920FB6EE
:100490000F9211240F900FBE0F901F9018950F937D
:1004A0001F93CF93DF93CBE2D1E01B821A8288EEB9
:1004B00093E0A0E0B0E08C839D83AE83BF838AE0AD
:1004C00091E09983888385EC90E09D878C8784EC0C
:1004D00090E09F878E8780EC90E0998B888B81ECF1
:1004E00090E09B8B8A8B82EC90E09D8B8C8B86ECD2
:1004F00090E09F8B8E8B198E1A8E1B8E1C8E08ECB3
:1005000011E0F8011282138281E084838BE78783F4
:100510008DE7808785E090E0928781871386148637
:100520001586168684E090E00E940C042CE131E0F0
:10053000FC0131832083D383C283F80191838083BC
:1005400083E891E0908B878784E490E00E940C041C
:10055000FC01E05CFF4F10823196108231961082D0
:1005600031962CE22083F80196838583DF91CF9129
:100570001F910F910895789484B5826084BD84B5ED
:10058000816084BD85B5826085BD85B5816085BD8E
:1005900080916E00816080936E0010928100809146
:1005A00081008260809381008091810081608093CE
:1005B0008100809180008160809380008091B100F3
:1005C00084608093B1008091B00081608093B0001E
:1005D00080917A00846080937A0080917A008260B2
:1005E00080937A0080917A00816080937A00809174
:1005F0007A00806880937A001092C100E0913B01FC
:10060000F0913C0182E08083E0913701F091380164
:100610001082E0913901F0913A018FEC80831092C1
:100620004301E0913F01F091400186E08083E09139
:100630003D01F0913E01808180618083E0913D0128
:10064000F0913E01808188608083E0913D01F091CE
:100650003E01808180688083E0913D01F0913E0100
:1006600080818F7D808361E68BE291E00E94F200C1
:10067000D1E015E00AE08091C8019091C901DC0148
:10068000ED91FC910190F081E02D0995C091CC0194
:10069000892B09F48AC08091C8019091C901C130A9
:1006A00019F5DC01ED91FC910280F381E02D0995B3
:1006B0008093CA019091CF018913DDCF1093CC01B3
:1006C0002FB7F8948091270190912801A0912901DA
:1006D000B0912A012FBF8093D3019093D401A093AE
:1006E000D501B093D601C7CFC53019F5DC01ED9126
:1006F000FC910280F381E02D09958093CB0199272D
:100700002091CF01022E000C330B8217930719F4AE
:10071000C093CC012EC02091D001022E000C330BCF
:100720008217930719F4D093CC01A5CF0093CC0185
:10073000A2CFCA3009F09FCFDC01ED91FC9102807D
:10074000F381E02D09958093CA019091CF0189131F
:1007500003C01093CC010DC09091D001891316C035
:10076000D093CC01E091D701F091D8018091CB01D9
:1007700009958091CD019091CE01FC01E05CFF4F85
:100780001082319610823196108275CF2091CD0162
:100790003091CE01F901E05CFF4F9081D901A90FA2
:1007A000B11D8C939F5F908366CFC13009F18FB7E5
:1007B000F89440912701509128016091290170918E
:1007C0002A018FBF8091CF01082E000C990BAA0B34
:1007D000BB0B481B590B6A0B7B0B8091D10190918D
:1007E000D201A0E0B0E0481759076A077B0718F06C
:1007F0000E945B0140CFD093CC01FACFF999FECF94
:1008000092BD81BDF89A992780B50895EE0FFF1F1C
:100810000590F491E02D0994CF93DF9382309105F8
:1008200010F482E090E0E091DB01F091DC0120E047
:1008300030E0C0E0D0E0309711F14081518148179D
:100840005907C0F04817590761F4828193812097B6
:1008500019F09B838A832BC09093DC018093DB018A
:1008600026C02115310519F04217530718F49A01D3
:10087000BE01DF01EF010280F381E02DDCCF211505
:10088000310509F1281B390B2430310590F41296FB
:100890008D919C9113976115710521F0FB01938354
:1008A000828304C09093DC018093DB01FD013296CA
:1008B00044C0FD01E20FF31F81939193225031094F
:1008C0002D933C933AC02091D9013091DA01232B2A
:1008D00041F420910201309103013093DA01209319
:1008E000D90120910001309101012115310541F418
:1008F0002DB73EB74091040150910501241B350BE3
:10090000E091D901F091DA01E217F307A0F42E1B70
:100910003F0B2817390778F0AC014E5F5F4F241763
:10092000350748F04E0F5F1F5093DA014093D9010D
:100930008193919302C0E0E0F0E0CF01DF91CF918D
:1009400008950F931F93CF93DF93009709F48CC002
:10095000FC013297138212820091DB011091DC01BD
:100960000115110581F420813181820F931F20919F
:10097000D9013091DA012817390779F5F093DA01B6
:10098000E093D90171C0D80140E050E0AE17BF0735
:1009900050F412962D913C911397AD01211531051C
:1009A00009F1D901F3CF9D01DA01338322836081FC
:1009B0007181860F971F8217930769F4EC012881D4
:1009C0003981260F371F2E5F3F4F318320838A8165
:1009D0009B8193838283452B29F4F093DC01E09380
:1009E000DB0142C01396FC93EE931297ED014991FF
:1009F00059919E01240F351FE217F30771F480818E
:100A00009181840F951F029611969C938E938281FB
:100A1000938113969C938E931297E0E0F0E0D801B7
:100A200012968D919C911397009719F0F8018C0103
:100A3000F6CF8D919C9198012E5F3F4F820F931FAF
:100A40002091D9013091DA012817390769F43097DC
:100A500029F41092DC011092DB0102C01382128291
:100A60001093DA010093D901DF91CF911F910F917B
:100A7000089581E090E0F8940C943E05F894FFCF3F
:100A80000000DD01800000000000F2005F008A002D
:100A90003901BB009900AD0000000000750169013B
:00000001FF
