:100000000C948E000C94B6000C94B6000C94B600C0
:100010000C94B6000C94B6000C94B6000C948A2292
:100020000C94B6000C94B6000C94B6000C94B60078
:100030000C94B6000C94B6000C94B6000C94B60068
:100040000C9415220C94B6000C9435230C940F23B9
:100050000C94B6000C94B6000C94B6000C94B60048
:100060000C949D180C94B6000B2413243E24662493
:10007000A524BD24D524ED24122544256F259825DB
:10008000B525DC25FD2515263D26000000002300B2
:1000900026002900C387697A676920697A6C656DD3
:1000A0006520647572647572756C64750048617A58
:1000B000C4B17221004B616C69627265206564692C
:1000C0006C69796F720000000000240027002A008C
:1000D00000000000250028002B0004040404040490
:1000E00004040202020202020303030303030102E7
:1000F00004081020408001020408102001020408B6
:1001000010200000000800020100000304070000A6
:100110000000000000000200DD276C2A11241FBE31
:10012000CFEFD8E0DEBFCDBF11E0A0E0B1E0EEEB55
:10013000FCE502C005900D92AE3EB107D9F723E071
:10014000AEEEB1E001C01D92AD34B207E1F710E0B0
:10015000CDE8D0E004C02197FE010E94852ACC386A
:10016000D107C9F70E948B280C94522E0C940000E2
:100170000895089508950895089508950895089597
:100180000895CF93DF93EC0160E08EE00E947B1A2C
:100190001BAA1AAA1DAA1CAA1FAA1EAADF91CF91E8
:1001A0000895CF93DF93EC0160E08EE00E947B1A0C
:1001B0008FEF90E09BA78AA79DA78CA79FA78EA7EC
:1001C000DF91CF9108950F931F93CF93DF938C010D
:1001D00086E190E00E94B12BEC018BE090E09983E6
:1001E00088838CE090E09B838A83198618861D861D
:1001F0001C861F861E86198A188A1B8A1A8A1D8ADF
:100200001C8A61E08BE00E947B1A60E08A810E9478
:100210007B1AF801D78FC68F8CE39EE09B8B8A8B6D
:100220001D8A1C8ADF91CF911F910F910895CF9362
:10023000DF93EC0160E08EE00E947B1A84E190E0A5
:100240000E94B12BFC0111861086118A108A9F8FA3
:100250008E8F8EED92E09587848717861686DF91C4
:10026000CF910895CF93DF93EC0160E08EE00E9480
:100270007B1A84E190E00E94B12BFC01118610866C
:10028000118A108A9F8F8E8F80EF92E095878487E6
:1002900017861686DF91CF9108950F931F93CF9302
:1002A000DF938C0189E090E00E94B12BEC011E826B
:1002B0001D8288E090E0998388831B821A821C82C9
:1002C00018861F8261E00E947B1AF801D78FC68FC3
:1002D000DF91CF911F910F910895FC01648191E00E
:1002E0006927648380810C942F1A0F931F93CF93F7
:1002F000DF93EC0160E088810E942F1A8FE090E08C
:100300000197F1F761E088810E942F1A83E290E063
:100310000197F1F760E088810E942F1A2A813B81C2
:100320003327F901E251FF4F6491F901E652FF4F83
:10033000E491F0E0EE0FFF1FE657FF4F8591949197
:1003400008E813E120E030E0462F0E94982761156D
:1003500071058105910539F0DC01CB010196A11DE4
:10036000B11DBF7003C080E090E0DC010097A105E3
:10037000B10589F0BC01CD01959587957795679575
:100380000E94E52C2DEC3CEC48EE51E40E94FF2A43
:100390000E94712B02C06FEF7FEF4A855B85088951
:1003A0001989EA89FB892C893D89309711F420FF4E
:1003B00019C0C9019595879520FF0BC09E01280F94
:1003C000391FD9012D913C91E20FF31F0190F0816B
:1003D000E02D9B01B8018C0F9D1FDF91CF911F91E4
:1003E0000F910994DF91CF911F910F9108958EE0A5
:1003F0000E94161B2FEF30E0DC010E948B2A2FEFAA
:1004000033E040E050E00E94022EB90189E00C94F4
:10041000B71AEF92FF920F931F93CF93DF93EC01E4
:100420008C810E94161B4E815F816A857B850E85BB
:100430001F85EC84FD84D801B595A79500FD02C009
:10044000F7010CC09E012A0F3B1FF9012081318169
:10045000F701E20FF31F0190F081E02D9C01CE0126
:100460008A0F9B1FDF91CF911F910F91FF90EF900B
:100470000994CF93DF93EC01673691F0623749F02E
:100480006236A1F48C819D810E94CB199FAB8EAB0B
:100490000DC08C819D810E94CB199BAB8AAB06C09D
:1004A0008C819D810E94CB199DAB8CABDF91CF914C
:1004B0000895CF93DF93EC01673691F0623749F0EE
:1004C0006236A1F48C819D810E94CB199FA78EA7D3
:1004D0000DC08C819D810E94CB199BA78AA706C065
:1004E0008C819D810E94CB199DA78CA7DF91CF9114
:1004F0000895CF93DF93EC016736E1F0623771F036
:10050000623639F58C819D810E94CB1999A788A705
:100510006FEF70E0681B790B8AA117C08C819D81F9
:100520000E94CB199DA38CA36FEF70E0681B790B21
:100530008E8D0BC08C819D810E94CB199FA38EA3B1
:100540006FEF70E0681B790B88A1DF91CF910C945D
:10055000B71ADF91CF910895CF93DF93EC01623703
:1005600089F06937E1F0673631F58C819D810E9411
:10057000CB19092E000CAA0BBB0B8AA79BA7ACA713
:10058000BDA719C08C819D810E94CB19092E000C3A
:10059000AA0BBB0B8EA79FA7A8ABB9AB0CC08C81D5
:1005A0009D810E94CB19092E000CAA0BBB0B8AABB4
:1005B0009BABACABBDABDF91CF910895CF93DF93F5
:1005C000E9018BE70E945F1783E790E00E9498178C
:1005D000CE010E946A178DE7DF91CF910C945F17CF
:1005E000CF93DF938EE00E94161BEC018BE70E94F5
:1005F0005F1783E790E00E949817CE010E946A1768
:100600008DE7DF91CF910C945F17FC0183A90C94C7
:100610005F224E960C940503CF93DF93EC0160E0CC
:100620008EE00E947B1ACE014E96DF91CF910C9402
:1006300005038F929F92AF92BF92CF92DF92EF927B
:10064000FF92CF93DF93603721F0633709F4CCC179
:1006500028C2EC018C819D810E94CB197C018C8188
:100660009D810E94CB192BE0E216F10411F4CE011A
:10067000BBC1EE0CFF1CDE01AE0DBF1D5E962D91C1
:100680003C915F97FC013D96EE0FFF1FEC0FFD1FA5
:10069000468D578DCF5ADF4F888199816091000137
:1006A000681721F06F3F09F0FCC104C0E6E1F1E0FA
:1006B000C4917DC080930001E6E1F1E0C491CF3F99
:1006C00009F4EFC1C13029F1C23009F449C0C111A8
:1006D0006EC014BC15BC64B5626064BD65B5616074
:1006E00065BDBC017727FB01E652FF4FE491F0E0C6
:1006F000EE0FFF1FE053FF4FA591B491B093F301AC
:10070000A093F201FB01E251FF4FE491E093F1016C
:1007100050C010928000109281006091810068604A
:100720006093810060918100616060938100BC01F1
:100730007727FB01E652FF4FE491F0E0EE0FFF1F39
:10074000E053FF4FA591B491B093F001A093EF0156
:10075000FB01E251FF4FE491E093EE01C1E029C0BB
:100760001092B0001092B1006091B000626060938E
:10077000B0006091B10061606093B100BC01772767
:10078000FB01E652FF4FE491F0E0EE0FFF1FE05354
:10079000FF4FA591B491B0934003A0933F03FB0199
:1007A000E251FF4FE491E0934103C2E002C0C7FD74
:1007B00078C1429F4001439F900C529F900C11249E
:1007C00061E00E947B1AA12CB12C8C2F8D7F09F047
:1007D000A0C060E072E18AE790E0A50194010E9468
:1007E000022E69017A01DA01C9010197A109B10953
:1007F0008F3F9105A105B10509F008F442C060E4FE
:1008000072E48FE090E0A50194010E94022EDA01CB
:10081000C9010197A109B109C230E1F48F3F9105E7
:10082000A105B10509F008F43AC160E970ED83E073
:1008300090E0A50194010E94022EDA01C9010197FE
:10084000A109B1098F3F9105A105B10509F088F50E
:1008500023E058C08F3F9105A105B105A1F098F0A4
:1008600068E478EE81E090E0A50194010E94022EF8
:10087000DA01C9010197A109B109CC2309F4C3C068
:1008800006C121E001C022E0CC2371F03BC0D701BA
:10089000C6012AE0B595A795979587952A95D1F732
:1008A0000197A109B10925E035B5387F232B25BD76
:1008B00061C068E478EE81E090E0A50194010E94B7
:1008C000022EDA01C9010197A109B1098F3F9105F3
:1008D000A105B10509F008F494C064E274EF80E06A
:1008E00090E0A50194010E94022EDA01C90101974E
:1008F000A109B1098F3F9105A105B10511F008F0DB
:10090000A0C025E03091B100387F232B2093B100A7
:100910002BC060E072E18AE790E0A50194010E949B
:10092000022EDA01C9010197A109B109009721E05E
:10093000A207B10578F068E478EE81E090E0A501C7
:1009400094010E94022EDA01C9010197A109B1099F
:1009500033E001C031E0C13039F420918100287FBB
:10096000232B2093810018C0C130B1F0C23049F16F
:10097000C11197C087BD8FEF9FEFDC018093F80115
:100980009093F901A093FA01B093FB0180916E005E
:10099000826080936E0085C0909389008093880068
:1009A0008FEF9FEFDC018093F4019093F501A0930A
:1009B000F601B093F70180916F00826080936F0021
:1009C00070C08093B3008FEF9FEFDC0180934203F0
:1009D00090934303A0934403B09345038091700028
:1009E0008260809370005DC04E96DF91CF91FF9042
:1009F000EF90DF90CF90BF90AF909F908F900C942E
:100A0000050324E07FCF8F3F9105A105B105B9F023
:100A1000B0F062E17AE780E090E0A50194010E94E5
:100A2000022EDA01C9010197A109B1098F3F910591
:100A3000A105B10511F008F02ACF24E035CF23E05D
:100A400033CF62E17AE780E090E0A50194010E9453
:100A5000022EDA01C9010197A109B1098F3F910561
:100A6000A105B10591F088F0D701C6013AE0B5952E
:100A7000A795979587953A95D1F70197A109B1095F
:100A8000CC2309F410CF27E03DCF26E0FDCE8F3FE9
:100A90009105A105B10509F0A0F624E0F5CE22E00C
:100AA00031CFDF91CF91FF90EF90DF90CF90BF904B
:100AB000AF909F908F9008954E960C940503CF931E
:100AC000DF93EC01862F6BAB7CAB1EAA1DAA18AE80
:100AD0001FAA1AAE19AE1AAA61E00E947B1A85E01D
:100AE00091E09983888381E191E09B838A8386E208
:100AF00091E09D838C8388E391E09F838E8389E4DA
:100B000091E0998788878DE591E09B878A8782E7C6
:100B100091E09D878C8786E891E09F878E8780EAA9
:100B200091E0998B888B88EB91E09B8B8A8B8DEE83
:100B300091E09D8B8C8B1F8A1E8A81E090E09B8FB9
:100B40008A8F82E090E09D8F8C8F84E090E09F8F71
:100B50008E8F88E090E099A388A380E190E09BA32A
:100B60008AA380E290E09DA38CA380E490E09FA301
:100B70008EA380E890E099A788A780E091E09BA7EA
:100B80008AA780E092E09DA78CA780E094E09FA7D1
:100B90008EA7DF91CF910895CF92DF92EF92FF92CF
:100BA0000F931F93CF93DF93EC016A0179017F8349
:100BB0006E830FEF10E0C801861B970BBC01888184
:100BC0000E94B71AD986C886B8016C197D098A8136
:100BD0000E94B71AFB86EA86B8016E197F098C81DC
:100BE000DF91CF911F910F91FF90EF90DF90CF9009
:100BF0000C94B71A20E030E040E050E060E070E094
:100C00004E960C94CC054F925F926F927F928F928A
:100C10009F92AF92BF92CF92DF92EF92FF92CF93CB
:100C2000DF93EC018EE00E94161BBC01990F880B2C
:100C3000990B0E94E52C6B017C012AA53BA54CA5D4
:100C40005DA50E94A72B181624F4CAA6DBA6ECA665
:100C5000FDA62AA53BA54CA55DA5C701B6010E942E
:100C6000FF2A9B01AC0160E070E080E89FE30E94F6
:100C7000922A6B017C012EA53FA548A959A90E9483
:100C8000922A20E030E048EC52E40E94442D0E9479
:100C9000712B685F7F4F6131710510F52DEC3CECD5
:100CA0004CEC5DE3C701B6010E94DE2C87FF50C00B
:100CB00020E030E040E050E060E070E0CE014E9691
:100CC000DF91CF91FF90EF90DF90CF90BF90AF90EA
:100CD0009F908F907F906F905F904F900C94CC0579
:100CE0006EA97FA9072E000C880B990B0E94E52C9A
:100CF000A70196010E94442D0E94712B2B013C01FB
:100D00006CA97DA9072E000C880B990B0E94E52C7D
:100D1000A70196010E94442D0E94712B4B015C019A
:100D20006AA97BA9072E000C880B990B0E94E52C61
:100D3000A70196010E94442D0E94712B9201A401EB
:100D4000CE014E960E94CC05CEA6DFA6E8AAF9AA4F
:100D5000DF91CF91FF90EF90DF90CF90BF90AF9059
:100D60009F908F907F906F905F904F90089520E0BC
:100D700030E040E050E060E070E04E960C94CC052E
:100D80004F925F926F927F928F929F92AF92BF929B
:100D9000CF92DF92EF92FF92CF93DF93EC018EE040
:100DA0000E94161BBC01990F880B990B0E94E52C21
:100DB00020E030EC4FE754E40E94FF2A6B017C01F5
:100DC0006EA57FA5072E000C880B990B0E94E52CC1
:100DD000A70196010E94442D0E94712B2B013C011A
:100DE0006CA57DA5072E000C880B990B0E94E52CA5
:100DF000A70196010E94442D0E94712B4B015C01BA
:100E00006AA57BA5072E000C880B990B0E94E52C88
:100E1000A70196010E94442D0E94712B9201A4010A
:100E2000CE014E96DF91CF91FF90EF90DF90CF9063
:100E3000BF90AF909F908F907F906F905F904F90FA
:100E40000C94CC0520E030E040E050E060E070E041
:100E50004E960C94CC0520E030E040E050E060E09D
:100E600070E04E960C94CC05CF93DF93EC01862F67
:100E7000688379835B834A833D832C8361E00E948E
:100E80007B1A61E08A810E947B1A61E08C81DF918C
:100E9000CF910C947B1A8F929F92AF92BF92CF9278
:100EA000DF92EF92FF920F931F93CF93DF93CDB713
:100EB000DEB7FC01408751876287738704871587F7
:100EC00026873787C08AD18AE28AF38A848A958AFC
:100ED000A68AB78A118E108E138E128E148E158EDE
:100EE000DF91CF911F910F91FF90EF90DF90CF9006
:100EF000BF90AF909F908F900895DC011C96ED916C
:100F0000FC911D971E962D913C911F97309711F4DF
:100F100020FF16C0C9019595879516964D915C9155
:100F2000179720FF0AC0DA01A80FB91F2D913C9135
:100F3000E20FF31F0190F081E02D840F951F0994BB
:100F40000895DC015096ED91FC91519752962D91A8
:100F50003C915397309711F420FF16C0C901959525
:100F6000879516964D915C91179720FF0AC0DA017C
:100F7000A80FB91F2D913C91E20FF31F0190F08152
:100F8000E02D840F951F09940895CF93DF93FB0103
:100F9000A3A1B4A1C5A1D6A1109789F4209749F4C3
:100FA000DC0111961C921E9213961C921E921297AF
:100FB0001EC01CA21BA2DC01CD93DC9316C020979F
:100FC00051F496961C921E929597EC01BB83AA83CE
:100FD00014A213A20CC09696DC93CE939597C5A14C
:100FE000D6A1BCA3ABA314A213A216A215A2DF9193
:100FF000CF910895CF93DF93FC0186859785009765
:1010000071F0648575856115710549F0EF010E94E5
:10101000C5078C859D85DF91CF910C94462CDF917F
:10102000CF910895CF93DF93FC01C68DD78D209784
:1010300041F0CE010E94FA07CE01DF91CF910C94CE
:10104000462CDF91CF910895CF93DF93FC018289E5
:101050009389009771F0608971896115710549F074
:10106000EF010E94C50788899989DF91CF910C947F
:10107000462CDF91CF910895CF93DF93FC01C68D6D
:10108000D78D209741F0CE010E942408CE01DF9138
:10109000CF910C94462CDF91CF910895CF93DF939D
:1010A000FC01C68DD78D209741F0CE010E94240807
:1010B000CE01DF91CF910C94462CDF91CF91089512
:1010C0000F931F93CF93DF93EC016CAD7DAD8A81BD
:1010D0009B810E94C5078CAD9DAD0E94462C8E0160
:1010E0000A5C1F4FEC96F80180810E5F1F4F60E095
:1010F0000E942F1A0C171D07B1F7DF91CF911F9196
:101100000F910895CF93DF93FC01C68DD78D209763
:10111000B1F01C8260E088810E942F1A8F8198852F
:10112000009741F06D817E810E94C5078D819E816F
:101130000E94462CCE01DF91CF910C94462CDF917A
:10114000CF910895EF92FF920F931F93CF93DF9368
:101150001F92CDB7DEB7DC019C918C918E7F8C9372
:101160008C918D7F8C93892F817090FF1FC09196F9
:101170002D913C91929721153105C1F07D019796F3
:101180000D90BC91A02D14960D911C91159715965C
:10119000FC92EE9214978983F9010995D7019796ED
:1011A000ED91FC9198971583048389810F90DF91CD
:1011B000CF911F910F91FF90EF900895CF93DF9300
:1011C000FC0127A930AD232BB1F0EC0160E083A92D
:1011D0000E942F1A8FA998ADFC01208120FD0E944A
:1011E000A2086DE571E086E192E00E94FB2282E0B8
:1011F00090E09EAB8DABDF91CF910895CF93DF93BD
:10120000FC0180899189009739F0EF010E94A208C2
:1012100082E090E099878887DF91CF9108950F93BE
:101220001F93CF93DF93FC01A7A1B0A51097E9F11D
:10123000EC01158A168A178A108E078CF0A1E02D12
:10124000309779F1888181FD2CC014960D911C9105
:1012500015971596DC93CE931497888182608883C6
:101260000995988180FB90F9988388818D7F888388
:10127000EFA1F8A5158304830E94671B09811A81D9
:101280002B813C810D831E832F833887DC01CB01AA
:10129000801B910BA20BB30B89879A87AB87BC8706
:1012A00004C0888181608883E7CFDF91CF911F914F
:1012B0000F910895CF93FC019081C92FC17090FDCB
:1012C00003C0CF010E940F098C2FCF910895CF93B7
:1012D000DF93FC01603731F1623781F5C68DD78D20
:1012E000288539858C859D852230310539F4009714
:1012F00029F10E945A0981E090E01EC06281738149
:101300001B861A867F876E87F98BE88B892B29F4D9
:10131000CE01DF91CF910C94FD17CE01DF91CF91DB
:101320000C94921BC68DD78D8C859D85009731F0CE
:101330000E94A20882E090E099878887DF91CF9190
:1013400008950F931F93CF93DF938C01FC0162A943
:1013500081E0682762AB83A90E942F1AF80180A957
:1013600091A9A0E0B0E0C7A9D0AD89839A83AB83EF
:10137000BC8389819A81AB81BC818D839E83AF833D
:10138000B8870E94671B69877A878B879C8781E073
:1013900090E0A0E0B0E08D879E87AF87B88B898B07
:1013A0009A8BAB8BBC8B81EA99E09A8F898F18A2BC
:1013B0001F8E1AA219A2F80187A990ADDF91CF91D3
:1013C0001F910F910C945A09CF93DF93FC018089F0
:1013D0009189009739F0EF010E945A0981E090E06D
:1013E00099878887DF91CF910895CF92DF92EF920E
:1013F000FF920F931F93CF93DF93EC018C010A5C54
:101400001F4FC12CD12C76018E8D9F8DA8A1B9A123
:101410008C159D05AE05BF0541F4F6017B96EE0FD8
:10142000FF1FEC0FFD1F61E002C060E0F80180814A
:101430000E942F1AFFEFCF1ADF0AEF0AFF0A0E5F92
:101440001F4F83E0C816D104E104F104E9F68E8D44
:101450009F8DA8A1B9A10196A11DB11D8E8F9F8F4F
:10146000A8A3B9A34EA15FA168A579A548175907FC
:101470006A077B0744F48AA19BA1ACA1BDA18E8F12
:101480009F8FA8A3B9A3EE8DFF8DEE0FFF1FEE0F68
:10149000FF1FEC0FFD1F82A593A5A4A5B5A50CAD5C
:1014A0001DADF80181839283A383B48381819281EE
:1014B000A381B48185839683A783B0870E94671B2D
:1014C000F801618772878387948781E090E0A0E0CC
:1014D000B0E085879687A787B08B818B928BA38B93
:1014E000B48B85EF99E0928F818F10A2178E12A294
:1014F00011A28CAD9DADDF91CF911F910F91FF9007
:10150000EF90DF90CF900C945A092F923F924F9218
:101510005F926F927F928F929F92AF92CF92DF9263
:10152000EF92FF920F931F93CF93DF93CDB7DEB768
:101530003C0118012901DC018C918E7F8C938C91E8
:101540008D7F8C93F301118612861386148615966F
:101550001D921D921D921C92189711821282138265
:10156000148214A213A216A215A210A617A25596B1
:101570001D921D921D921C92589741835283638342
:10158000748381819281A381B48185839683A783AB
:10159000B0870E94671BD30119966D937D938D933D
:1015A0009C931C97F301258636864786508A519670
:1015B0002D923D924D925C9254975A96FC92EE92E7
:1015C000599790969C928E925F978C899D8992965E
:1015D0009C938E939197C114D10411F19896DC924B
:1015E000CE929797F60180819181892B39F471828F
:1015F000608294961C921E9293970AC00280F38197
:10160000E02DD3019496FC93EE93939776A265A276
:10161000F30116A215A2D60113967C926E92129730
:10162000AA2019F0C3010E940F098E899F89F30136
:10163000948F838F888D998D968F858FDF91CF9131
:101640001F910F91FF90EF90DF90CF90AF909F9000
:101650008F907F906F905F904F903F902F90089564
:101660004F925F926F927F928F929F92AF92CF92A2
:10167000DF92EF92FF920F931F93CF93DF9300D0EF
:1016800000D0CDB7DEB73C01CB01FA01B901A8010A
:10169000D3011596FC93EE93149717969C938E9313
:1016A00016975396FC92EE9252971B96DC92CE922E
:1016B0001A975096CD90DC905197C114D10461F5E2
:1016C00089E290E009835A836B837C830E94B12B6B
:1016D0002C011F921F927F926F921F921F92812C5A
:1016E000912CAA24A394670189E0E82E82E0F82EC9
:1016F0000FEF1FEF980149815A816B817C81C201F4
:101700000E94850AF301518A408A0F900F900F9032
:101710000F900F900F902FC0D60111960D931D932F
:101720002D933C93149711968D919D910D90BC91A2
:10173000A02DF60185839683A783B0870E94671B3F
:10174000D60119966D937D938D939C931C978FEF83
:101750009FEFDC01F60185879687A787B08B818B89
:10176000928BA38BB48B89E092E0928F818F10A231
:10177000178E12A211A281E090E0D30119969C93DA
:101780008E9318970F900F900F900F90DF91CF913D
:101790001F910F91FF90EF90DF90CF90AF909F90AF
:1017A0008F907F906F905F904F900895CF92DF92CF
:1017B000EF92FF920F931F93FC01603729F163377B
:1017C00069F5868D978DDC0118962D913C911997BE
:1017D0002115310571F46F01E280F38002E310E01E
:1017E00020E030E04EE050E060E070E00E94300B1E
:1017F00015C02230310591F41F910F91FF90EF90A9
:10180000DF90CF900C94E409868D978D1F910F91F6
:10181000FF90EF90DF90CF900C94FE081F910F91F6
:10182000FF90EF90DF90CF900895CF92DF92EF92EC
:10183000FF920F931F93FC01603729F1633769F51D
:10184000868D978DDC0118962D913C911997211565
:10185000310571F46F01E280F38002E310E020E0D3
:1018600030E04EE050E060E070E00E94300B15C0C8
:101870002230310591F41F910F91FF90EF90DF908E
:10188000CF900C94E409868D978D1F910F91FF9056
:10189000EF90DF90CF900C94FE081F910F91FF9076
:1018A000EF90DF90CF9008956F927F928F929F92EA
:1018B000AF92CF92DF92EF92FF920F931F93CF934D
:1018C000DF93EC018C010A5C1F4F6C018CE3C80EA6
:1018D000D11C380161E0F80180810E947B1A0E5F03
:1018E0001F4F60E0F30180810E942F1A0C151D0527
:1018F00081F7CA80DB8089E290E00E94B12B3C0135
:101900001F921F92DF93CF931F921F92812C912CD5
:10191000AA24A39485EFE82E89E0F82E01E010E0D8
:1019200020E030E041E050E060E070E0C3010E9460
:10193000850A7DAE6CAE0F900F900F900F900F90B8
:101940000F90DF91CF911F910F91FF90EF90DF905B
:10195000CF90AF909F908F907F906F9008952F922F
:101960003F924F925F926F927F928F929F92AF922F
:10197000CF92DF92EF92FF920F931F93CF93DF935B
:1019800000D000D0CDB7DEB71C01633659F120F48A
:10199000623609F47EC013C16F3621F0643709F452
:1019A00040C00DC1DC015E96CD90DC905F97F601E2
:1019B00082819381019769F485819681009749F02E
:1019C0000E94A20882E090E0D60113969C938E9329
:1019D0001297D1015E96ED91FC915F9781E084832F
:1019E00061E03FC0FC01C68CD78CD60112968D9168
:1019F0009C911397019769F415968D919C91169778
:101A0000009739F00E94A20882E090E0F6019383EB
:101A10008283D1015E96ED91FC915F97148260E024
:101A200020C0FC01C68CD78CD60112968D919C915A
:101A30001397019769F415968D919C9116970097CD
:101A400039F00E94A20882E090E0F601938382833D
:101A5000D1015E96ED91FC915F97648181E06827EA
:101A6000648380810F900F900F900F90DF91CF9142
:101A70001F910F91FF90EF90DF90CF90AF909F90CC
:101A80008F907F906F905F904F903F902F900C942D
:101A90002F1AFC01848195810E94CB19D1011296E5
:101AA000CD90DC901397AC01990F660B770B5E9687
:101AB0006D907C905F97F301D086C78245805680F9
:101AC0004114510469F589E290E049835A836B839C
:101AD0007C830E94B12B2C011F921F927F926F92E8
:101AE0001F921F92812C912CAA24A3948DE6E82E9C
:101AF00081E0F82E0FEF1FEF980149815A816B8129
:101B00007C81C2010E94850AD30116965C924E9296
:101B100015970F900F900F900F900F900F902AC075
:101B2000F201418352836383748381819281A38113
:101B3000B48185839683A783B0870E94671BD201F7
:101B400019966D937D938D939C931C978FEF9FEFC8
:101B5000DC01F20185879687A787B08B818B928BFA
:101B6000A38BB48B8DE691E0928F818F10A2178E9C
:101B700012A211A2D30115968D919C9116970097F0
:101B800039F00E945A0981E090E0F3019383828347
:101B9000D1015E96CD90DC905F97F60182819381B2
:101BA000029769F485819681009749F00E945A094D
:101BB00081E090E0D60113969C938E9312970F903C
:101BC0000F900F900F90DF91CF911F910F91FF9089
:101BD000EF90DF90CF90AF909F908F907F906F901D
:101BE0005F904F903F902F900895CA01DB011A96A5
:101BF000ED91FC911B97B9010994089508950895FA
:101C0000FC01168E08950895089508950895089585
:101C10000895FC0185A996A90C94462C66E671E00E
:101C200086E192E00C94FB22CF93DF93E90184E7F5
:101C300091E00E94171783E790E00E949817CE0169
:101C40000E946A1786E791E0DF91CF910C941717F5
:101C5000CF93DF93E90184E791E00E94171783E7B0
:101C600090E00E949817CE010E946A1786E791E0E3
:101C7000DF91CF910C941717CF93DF93E9018BE796
:101C80000E945F1782E790E00E949817CE010E94A1
:101C90006A178DE7DF91CF910C945F17CF93DF9395
:101CA000EC018DE090E00E94B12BFC0181E094E01A
:101CB000938382831582148288E290E097838683DF
:101CC00084E190E09187808713861286FEABEDABAE
:101CD0001BA61AA61FA61EA6DF91CF910895CF932B
:101CE000DF93EC0184E190E00E94B12BFC011186AE
:101CF0001086118A108A9F8F8E8F88E29EE09587CA
:101D0000848717861686DF91CF910895EF92FF9210
:101D10000F931F93CF93DF938C01EB016F3F7105FE
:101D200009F03CF461308FEF78077CF077FD12C04A
:101D300002C06FEF70E0F80180810E94B71A60E086
:101D4000F80182810E942F1A13C0EE24E394FF242D
:101D5000FA9401C07B0160E0F80180810E942F1A93
:101D6000662777276E197F09F80182810E94B71ACA
:101D7000F801D583C483DF91CF911F910F91FF901C
:101D8000EF900895CF93DF93DC011C966D917C91C9
:101D90001D971496ED91FC9115979B012E1B3F0BFF
:101DA00037FD23C0B1E0A0E02115310509F4B0E012
:101DB0004B2F5A2F21153105D1F4EC018A899B89CB
:101DC0000E94A208188A8C819D81892B49F48989F7
:101DD000882319F081E090E005C01B861A8620C098
:101DE00083E090E09B878A871BC04FEF5FEFEC0199
:101DF000AE81BF8137FF03C0319521953109A2170C
:101E0000B30754F4A49F9001A59F300DB49F300DEB
:101E10001124BF01620F731FDF91CF910C94860EC6
:101E2000DF91CF910895CF92DF92EF92FF920F93BF
:101E30001F93FC01603729F1633769F585A596A5E5
:101E4000DC0118962D913C9119972115310571F4FB
:101E50006F01E280F38002E310E020E030E04EE02A
:101E600050E060E070E00E94300B15C02230310578
:101E700091F41F910F91FF90EF90DF90CF900C9411
:101E8000E40985A596A51F910F91FF90EF90DF9033
:101E9000CF900C94FE081F910F91FF90EF90DF9070
:101EA000CF900895CF92DF92EF92FF920F931F93FE
:101EB000FC01603729F1633769F5868D978DDC0168
:101EC00018962D913C9119972115310571F46F01E8
:101ED000E280F38002E310E020E030E04EE050E0EA
:101EE00060E070E00E94300B15C02230310591F4A3
:101EF0001F910F91FF90EF90DF90CF900C94E40929
:101F0000868D978D1F910F91FF90EF90DF90CF906E
:101F10000C94FE081F910F91FF90EF90DF90CF90EF
:101F200008950F931F93CF93DF93EC016BA57CA5CE
:101F30008A819B810E94C5078BA59CA50E94462C87
:101F40000DA51EA50115110531F0C8010E94240838
:101F5000C8010E94462C20E030E040E050E060E004
:101F600070E0CE014F96DF91CF911F910F910C94AD
:101F7000CC05CF93DF93FC01C68DD78D209741F020
:101F8000CE010E942408CE01DF91CF910C94462C03
:101F9000DF91CF9108956F927F928F929F92AF922F
:101FA000CF92DF92EF92FF920F931F93CF93DF9325
:101FB000EC0184E190E00E94B12BFC0111861086B7
:101FC000118A108A9EA78DA784E19EE09587848759
:101FD000178616861E8ECA80DB8089E290E00E94FA
:101FE000B12B3C011F921F92DF93CF931F921F9240
:101FF000812C912CA12C80E0E82E8EE0F82E01E0BF
:1020000010E020E030E040E050E0BA01C3010E945F
:10201000850A7CA66BA60F900F900F900F900F90E3
:102020000F90DF91CF911F910F91FF90EF90DF9074
:10203000CF90AF909F908F907F906F900895EF9288
:10204000FF920F931F93CF93DF93FC01268D2111F5
:1020500048C0EC018EE00E94161B7C018E01015EDF
:102060001F4F20E030E040E050E060E070E0C80149
:102070000E94CC05C70188569140C29728F420E001
:1020800030E04FEF50E009C0C7018B5491404D97AD
:1020900038F42FEF30E040E050E060E070E014C032
:1020A000C70182539140499728F420E030E040E096
:1020B00050E008C0FBEFEF16F1049CF42FEF30E086
:1020C0004FEF50E06FEF70E0C8010E94CC058BA588
:1020D0009CA50E94731B8BA59CA50E945A0981E0B8
:1020E0008E8FDF91CF911F910F91FF90EF90089508
:1020F0002F923F924F925F926F927F928F929F9218
:10210000AF92CF92DF92EF92FF920F931F93CF93F4
:10211000DF9300D000D0CDB7DEB737FDDBC069015B
:102120001B018C018BE70E945F1782E790E00E9401
:102130009817C6010E946A178DE70E945F1729E26F
:10214000C216D104E4F0D10190968D919C919197A3
:102150000F900F900F900F90DF91CF911F910F91E3
:10216000FF90EF90DF90CF90AF909F908F907F90F7
:102170006F905F904F903F902F900C94DE08B2E0EC
:10218000CB16D1041CF5F10180A191A10E94DE08BB
:10219000D1019096ED91FC91919761E083A90F9008
:1021A0000F900F900F90DF91CF911F910F91FF90A3
:1021B000EF90DF90CF90AF909F908F907F906F9037
:1021C0005F904F903F902F900C942F1A22EC31E0AB
:1021D000D6010E948B2A28E230E040E050E00E94C5
:1021E000022E29013A01B2E34B0E511C611C711CF5
:1021F000F10182A193A19201281B390BC901833EF1
:102200003FEF93071CF04E970CF464C0D801129670
:10221000CD90DC901397F10100A0F1A1E02DFC839B
:10222000EB83D2AEC1AE51AA40AA87A990AD892B4B
:10223000A1F568E771E086E192E00E94FB2289E265
:1022400090E00E94B12B9A8389831F921F92FC8198
:10225000FF932B812F931F921F92812C912CAA24E4
:10226000A39481EAE82E89E0F82E01E010E020E056
:1022700030E0B301A20189819A810E94850AE98137
:10228000FA81AB81BC81D896FC93EE93D7970F90DF
:102290000F900F900F900F900F9067E871E086E11C
:1022A00092E00E94FB22AB81BC81D7968D919C91DC
:1022B000D897009711F00E945A0981E090E0EB81D5
:1022C000FC8196AB85ABD10192964D925D926D9259
:1022D0007C9295970F900F900F900F90DF91CF9178
:1022E0001F910F91FF90EF90DF90CF90AF909F9054
:1022F0008F907F906F905F904F903F902F900895B8
:10230000CF93DF93FC01603731F1623781F5C68DE1
:10231000D78D288539858C859D852230310539F406
:10232000009729F10E945A0981E090E01EC0628165
:1023300073811B861A867F876E87F98BE88B892BC2
:1023400029F4CE01DF91CF910C94FD17CE01DF91DE
:10235000CF910C94921BC68DD78D8C859D8500974F
:1023600031F00E94A20882E090E099878887DF918F
:10237000CF9108950F931F93CF93DF938C01FC01AE
:1023800080A191A10E940503F801C68DD78D8C858F
:102390009D85009731F00E94A20882E090E0998725
:1023A0008887F801C0A1D1A1209779F089AD9AADB5
:1023B000009741F06FA978AD0E94C5078FA998AD2D
:1023C0000E94462CCE010E94462CF801C68DD78D66
:1023D000209751F0CE010E94FA07CE01DF91CF91F4
:1023E0001F910F910C94462CDF91CF911F910F916B
:1023F00008950F931F93CF93DF938C0186E190E0B4
:102400000E94B12BEC018BE090E0998388838CE0F3
:1024100090E09B838A83198618861D861C861F86FA
:102420001E86198A188A1B8A1A8A1D8A1C8A61E0EC
:102430008BE00E947B1A60E08A810E947B1AD8019F
:102440005F96DC93CE935E978BE390E00E94B12B76
:10245000EC0168E070E00E945F05F801D1A3C0A321
:10246000828193819AAF89AF068CF78DE02D88E742
:1024700090E1938B828B158A148AD80190968D9166
:102480009C919197DF91CF911F910F910C9405032F
:102490002F923F924F925F926F927F928F929F9274
:1024A000AF92BF92CF92DF92EF92FF920F931F9362
:1024B000CF93DF931901EB0161307F4F14F4C1E03A
:1024C000DFEFCF3FD10519F014F0CFEFD0E07A0164
:1024D00041305F4F24F4EE24E394FF24FA94BE01CC
:1024E000D7FF04C0662777276C1B7D0B072E000CD7
:1024F000880B990B0E94E52C4B015C01B7016F3FE3
:10250000710519F014F06FEF70E0072E000C880BC6
:10251000990B0E94E52C6B017C01BE010D2E000C75
:10252000880B990B0E94E52C20E030E04FE753E444
:102530000E94FF2A9B01AC01C701B6010E94442DF5
:102540002B013C019B01AC01C501B4010E94932AFF
:102550006B017C01A3019201C501B4010E94922A82
:102560004B015C0120E030E04FE753E4C701B601C6
:102570000E94A72B1816B4F420E030E04FE753E494
:10258000C701B6010E94922A9B01AC01C501B401AA
:102590000E94922A4B015C01C12CD12C9FE7E92EAD
:1025A00093E4F92E20E030E04FE753E4C501B40195
:1025B0000E94A72B1816B4F420E030E04FE753E454
:1025C000C501B4010E94922A9B01AC01C701B6016A
:1025D0000E94922A6B017C01812C912C8FE7A82EFE
:1025E00083E4B82E1C161D0644F0F7FAF094F7F8B1
:1025F000F094B7FAB094B7F8B094C701B6010E944E
:10260000712BF10171836083C501B4010E94712BAC
:10261000F80171836083DF91CF911F910F91FF903B
:10262000EF90DF90CF90BF90AF909F908F907F9072
:102630006F905F904F903F902F900895AF92BF9210
:10264000CF92DF92EF92FF920F931F93CF93DF937E
:1026500000D000D0CDB7DEB77C015B016A018E01EE
:102660000F5F1F4F9E012D5F3F4F0E9448126B81ED
:102670007C81F701808591850E94860E69817A812F
:10268000F701828593850E94860EF701B182A082B0
:10269000D382C2820F900F900F900F90DF91CF9155
:1026A0001F910F91FF90EF90DF90CF90BF90AF9070
:1026B0000895CF93DF93EC018CA19DA1029771F453
:1026C0008BE70E945F1783E490E00E94981784E9EB
:1026D00090E00E949D178DE70E945F171DA21CA22B
:1026E00040E050E060E070E08FA998ADDF91CF91BD
:1026F0000C941E132F923F924F925F926F927F9293
:102700008F929F92AF92BF92CF92DF92EF92FF9201
:102710000F931F93CF93DF93CDB7DEB72A970FB6F2
:10272000F894DEBF0FBECDBFDC0194962D913C9195
:1027300095972115310509F47CC22330310509F440
:1027400078C28C012130310509F008C18BE70E9465
:102750005F1783E490E00E94981785EB90E00E9459
:102760009D178DE70E945F17F801E5A8F6A80E9463
:10277000671B4B015C016E01FBE0CF0ED11C0E9478
:10278000671BDC01CB0188199909AA09BB09883E9E
:102790009340A105B105C8F58EE00E94161B9A83EF
:1027A00089838FE00E94161B9C838B8380E10E94AB
:1027B000161B9E838D8381E10E94161B98878F8351
:1027C00082E10E94161B9A878987FE0131968191CA
:1027D0009191D70112962D913C91139782179307EF
:1027E00024F413969C938E931297D70114962D91EF
:1027F0003C9115972817390724F415969C938E93CE
:102800001497EC15FD0519F7BACFD70112966D9103
:102810007C911397072E000C880B990B0E94E52CD6
:102820002B013C012DEC3CEC4CE45EE30E94442D7A
:102830005B016C01F70166817781072E000C880B24
:10284000990B0E94E52C1B014C019B01AC01B501C9
:10285000C6010E94A72B181614F0510164019501BE
:10286000A601C301B2010E94932A0E94712BD701D5
:1028700013967C936E93129714966D917C91159795
:10288000072E000C880B990B0E94E52C2B013C01B4
:1028900020E030E040E05FE30E94442D5B016C01EA
:1028A0009101A4010E94A72B181614F05101640194
:1028B0009501A601C301B2010E94922A0E94712BC8
:1028C000F7017583648363E971E086E192E00E9419
:1028D000FB2288EA91E00E941717D70112968D918A
:1028E0009C9113970E946A178DEA91E00E94171736
:1028F0008DEA91E00E9417178FEA91E00E94171766
:10290000F701848195810E946A17C8010E945913BA
:102910008BE70E945F1783E490E00E9498178DEA8E
:1029200090E00E949D178DE72A960FB6F894DEBFBF
:102930000FBECDBFDF91CF911F910F91FF90EF9010
:10294000DF90CF90BF90AF909F908F907F906F90CF
:102950005F904F903F902F900C945F17223031057D
:1029600009F067C1DC01D596ED90FC90D6978EE01A
:102970000E94161B9A8389838FE00E94161B9C83FA
:102980008B8380E10E94161B9E838D8381E10E94D0
:10299000161B98878F8382E10E94161B9A8789876E
:1029A000F70122813381CE0101966C0180E090E035
:1029B000DC0140E0F601619171916F0162177307CC
:1029C0008CF4AC01BD01E2E075956795579547958C
:1029D000EA95D1F74456510961097109F70151830C
:1029E000408341E088539F4FAF4FBF4F883EF3E095
:1029F0009F07A105B105F1F6442341F0D7011B96CD
:102A00001C921E921A971C961C9212C0F701848584
:102A100090E020853185821793072CF0138612866B
:102A200081E0848705C0828593850196938782879C
:102A3000D801D596ED91FC91D69760817181CB013B
:102A4000770FAA0BBB0B8C599F4FAF4FBF4FBC01E9
:102A5000CD0142E0660F771F881F991F4A95D1F775
:102A600028EC30E040E050E00E94022E69017A013B
:102A7000B2E0CB1AD108E108F108F80126A537A584
:102A8000A601D7FE04C0442755274C195D094130E3
:102A9000510539F062E3649FC001659F900D1124D8
:102AA00002C084E190E0280F391FD8019F963C9323
:102AB0002E939E97D2968D919C91D39782179307D0
:102AC00024F49F969C938E939E979195819591095E
:102AD000F80126A537A52817390714F497A786A764
:102AE000D801D0966D917C91D1971C141D041E04C1
:102AF0001F044CF45B019E968D919C919F974B0116
:102B0000881A990A5BC0C114D104E104F10441F0B0
:102B10004B01F80186A597A55B01A81AB90A4EC01A
:102B2000D8019A968D919C919B97009709F444C087
:102B3000680F791F77FF19C09E966D917C919F97C2
:102B400077FF03C0719561957109072E000C880B02
:102B5000990B0E94E52C2DEC3CEC4CEC5EE30E94C2
:102B6000442D0E94712B4B011EC0672BD1F0F80140
:102B700066A577A577FF03C0719561957109072E4A
:102B8000000C880B990B0E94E52C2DEC3CEC4CECD6
:102B90005EE30E94442D0E94712B5B01812C912CDD
:102BA00004C0812C912CA12CB12C66E070E080E057
:102BB00090E00E942D1B02C04B015B01FFEF8F16BE
:102BC000910409F054F421E082162FEF920644F4A8
:102BD0008824839499249A9403C088248A94912CFD
:102BE0005FEFA516B10409F054F481E0A8168FEF49
:102BF000B80644F4AA24A394BB24BA9403C0AA241C
:102C0000AA94B12CD801D796ED91FC91D897B40134
:102C1000808591850E94860ED801D796ED91FC9112
:102C2000D897B501828593850E94860EF801D3A6B8
:102C3000C2A62A960FB6F894DEBF0FBECDBFDF91B5
:102C4000CF911F910F91FF90EF90DF90CF90BF90A9
:102C5000AF909F908F907F906F905F904F903F903C
:102C60002F900895CF93DF93FC01628973896115DA
:102C7000710569F084899589009749F0EF010E94F8
:102C8000C5078A899B89DF91CF910C94462CDF91EF
:102C9000CF9108958F929F92AF92BF92CF92DF9281
:102CA000EF92FF920F931F932DEF822E2DE0922E25
:102CB000A12CB12C3EEFC32E3DE0D32EE12CF12C04
:102CC0000EE01EE020E030E04FEF5DE060E070E0FD
:102CD0000E944B071F910F91FF90EF90DF90CF90D4
:102CE000BF90AF909F908F90089585ED8093BC002A
:102CF0008091BC0084FDFCCF10920D03089540919B
:102D0000E702262F30E0240F311D21323105DCF49B
:102D100020910D032430C9F4FC0180E090E0861777
:102D200058F43091E7022191DC01AB53BD4FA30F62
:102D3000B11D2C930196F3CF8091E702680F609349
:102D4000E70280E0089581E0089582E00895089503
:102D50008FEF9FEF08958FEF9FEF08958091C4024A
:102D600090E09195819591090895CF93DF9300D0DC
:102D7000CDB7DEB7CB01642F49835A830E947F16FB
:102D80004981842F5A81952F0F900F90DF91CF9119
:102D90000895CF93DF931F92CDB7DEB7698361E0CB
:102DA000CE0101960E947F1681E090E00F90DF91A6
:102DB000CF910895DC0112968D919C911397DC01BF
:102DC000ED91FC910284F385E02D0994DC011296CB
:102DD0008D919C911397DC01ED91FC910084F1851C
:102DE000E02D09943FB7F894809100029091010280
:102DF000A0910202B091030226B5A89B05C02F3F07
:102E000019F00196A11DB11D3FBFBA2FA92F982F10
:102E10008827820F911DA11DB11DBC01CD0142E08B
:102E2000660F771F881F991F4A95D1F70895BC0137
:102E300086E192E00C94E6228F929F92AF92BF922D
:102E40000F931F93CF93DF93CDB7DEB7A1970FB644
:102E5000F894DEBF0FBECDBF19A2423008F44AE09D
:102E60008E010F5D1F4F842E912CA12CB12CA5013A
:102E700094010E94212EE62FB901CA0101501109C7
:102E8000EA3014F4E05D01C0E95CD801EC93232B37
:102E9000242B252B61F7B80186E192E00E94E622FF
:102EA000A1960FB6F894DEBF0FBECDBFDF91CF91D4
:102EB0001F910F91BF90AF909F908F900895E091D8
:102EC0001602F09117020190F081E02D682F86E143
:102ED00092E00994CF92DF92EF92FF92CF93DF932B
:102EE0006C01990FEE08FF08F7FE17C08DE20E94F3
:102EF0005F17EC0166277727CB016C197D098E09D6
:102F00009F094AE00E941C178C0F9D1FDF91CF91F3
:102F1000FF90EF90DF90CF9008954AE0C701B6018F
:102F2000DF91CF91FF90EF90DF90CF900C941C1722
:102F3000682F86E192E00C9483210F931F93CF9327
:102F4000DF938C01C0E0D0E0F801EC0FFD1F64912D
:102F5000662371F0E0911602F09117020190F08162
:102F6000E02D86E192E00995892B11F02196ECCFB6
:102F7000CE01DF91CF911F910F9108950F931F9371
:102F8000CF93DF938C01C0910C02D0910D0284E0AD
:102F900090E00E94B12BFC0190930D0280930C02F3
:102FA000892B61F48091060290910702009721F02D
:102FB0006EEA71E00E94FB220E9472281382128244
:102FC0001183008380910A0290910B02892B29F4CE
:102FD000F0930B02E0930A0202C0FB83EA83809124
:102FE00008029091090201969093090280930802C9
:102FF000DF91CF911F910F9108956F927F928F92E1
:103000009F92AF92CF92DF92EF92FF920F931F9316
:10301000CF93DF93EC016B0189E290E00E94B12B2A
:103020003C011F921F92DF93CF931F921F92812C1E
:10303000912CAA24A39485E7E82E81E0F82E0FEFC7
:103040001FEF980146E450E060E070E0C3010E9489
:10305000850A7D866C860F900F900F900F900F90D1
:103060000F90DF91CF911F910F91FF90EF90DF9024
:10307000CF90AF909F908F907F906F9008956F92B8
:103080007F928F929F92AF92CF92DF92EF92FF92B8
:103090000F931F93CF93DF93EC016A015D8B4C8BF1
:1030A00082E390E09F838E837D876C878A899B89EA
:1030B000009741F589E290E00E94B12B3C014885E0
:1030C0005985052E000C660B770B1F921F92DF931C
:1030D000CF931F921F92812C912CAA24A39482EC4F
:1030E000E82E8EE0F82E0FEF1FEF9801C3010E942B
:1030F000850A7B8A6A8A0F900F900F900F900F902D
:103100000F9002C00E945A0981E0888B8A859B85B6
:10311000019709F4198A82E090E09B878A87DF9102
:10312000CF911F910F91FF90EF90DF90CF90AF90D4
:103130009F908F907F906F9008951F920F920FB67F
:103140000F9211242F933F934F935F936F937F932D
:103150008F939F93AF93BF93EF93FF938091B900A9
:10316000887F803609F49CC068F5883209F45BC01A
:1031700090F4803109F454C038F4882309F4F6C07F
:10318000883009F44DC0F6C0883109F44CC0803253
:1031900009F45DC0EFC0803409F468C048F480339E
:1031A00009F455C0883309F0E5C080930C03D8C0FA
:1031B000803509F44FC0883509F45DC0883409F0C2
:1031C000D9C0D6C0883909F4C7C0A8F4883709F433
:1031D00067C038F4883609F463C0803709F460C0EA
:1031E000C9C0883809F4B8C0803909F45FC0803894
:1031F00009F0C0C05BC0803B09F486C038F4803A57
:1032000009F466C0883A09F47FC0B4C0803C09F470
:10321000A7C0883C09F4A4C0883B09F48AC0AAC0AE
:103220008091320310C09091310380913003981740
:1032300070F5E091310381E08E0F80933103F0E06F
:10324000E05FFC4F80818093BB0085EC86C080935B
:103250000C038EC0E091310381E08E0F8093310327
:103260008091BB00F0E0E05FFC4F808390913103E0
:10327000809130036EC0E091310381E08E0F809326
:1032800031038091BB00F0E0E05FFC4F80838091D0
:103290000F0381116DC081E080930E0384EA61C049
:1032A00083E080930D0310920B03CFCF80910B032B
:1032B000803208F051C0E0910B0381E08E0F8093C3
:1032C0000B038091BB00F0E0E551FD4F8083BDCF43
:1032D00085EC8093BC0010920D0380910B0380322B
:1032E00030F4E0910B03F0E0E551FD4F1082609166
:1032F0000B0370E0E091E902F091EA028BEE92E0BC
:10330000099510920B0336C084E080930D03109250
:10331000E8021092E702E091E502F091E6020995D9
:103320008091E702811105C081E08093E70210924D
:10333000C502E091E80281E08E0F8093E802F0E0A0
:10334000EB53FD4F80818093BB009091E802809108
:10335000E702981708F479CF85E88093BC000AC08B
:1033600085EC8093BC0010920D0304C010920C03F6
:103370000E947516FF91EF91BF91AF919F918F9130
:103380007F916F915F914F913F912F910F900FBE61
:103390000F901F901895DF92EF92FF920F931F935B
:1033A000CF93DF93FC0165817681EB01CF5BDF4F2B
:1033B0001881DB01AE5BBF4F1C93129798819B0174
:1033C000290F311DF90180818C3219F08C919813ED
:1033D00038C0892F811BD12C40E050E0E12FF0E074
:1033E000082F10E0882339F1E82EF12CDB01AE0D17
:1033F000BF1DAE0FBF1F11972C912D32C1F0022EB1
:10340000000C330B20533109D801AE19BF09AA0FA4
:10341000BB1FA55FBE4FED90FC902E9DD0012F9D50
:10342000B00D3E9DB00D11244A0F5B1F02C0DD247C
:10343000D3948150D7CFDD2039F051954195510972
:1034400003C09F5F9883BACF9F5F9883CA01DF91C3
:10345000CF911F910F91FF90EF90DF90089590E032
:10346000FC01EE5FFE4F3491FC01E251FF4F2491CD
:10347000FC01E652FF4FE491EE2309F43BC03323F5
:1034800039F1333091F038F43130A9F0323001F5B0
:1034900084B58F7D12C0373091F03830A1F03430D0
:1034A000B9F4809180008F7D03C0809180008F7778
:1034B000809380000DC084B58F7784BD09C0809152
:1034C000B0008F7703C08091B0008F7D8093B000F3
:1034D000F0E0EE0FFF1FE053FF4FA591B4918FB7BF
:1034E000F894EC91611103C020952E2301C02E2B7E
:1034F0002C938FBF0895CF93DF9390E0FC01E251AE
:10350000FF4F2491FC01E652FF4F8491882361F123
:1035100090E0880F991FFC01EA53FF4FC591D491A9
:10352000FC01E053FF4FA591B491611109C09FB711
:10353000F8948881209582238883EC912E230BC0F8
:10354000623061F49FB7F8943881822F809583238D
:103550008883EC912E2B2C939FBF06C08FB7F894D5
:10356000E8812E2B28838FBFDF91CF9108951F9381
:10357000CF93DF93182FEB0161E00E947B1A209715
:1035800011F460E004C0CF3FD10539F461E0812F30
:10359000DF91CF911F910C942F1AE12FF0E0EE5F95
:1035A000FE4FE491E330F9F048F4E130B9F0E23055
:1035B000A1F584B5806284BDC8BD34C0E730E9F0B0
:1035C000E83019F1E43049F5809180008062809301
:1035D0008000D0938B00C0938A0024C084B580689B
:1035E00084BDC7BD1FC0809180008068809380002B
:1035F000D0938900C093880015C08091B000806886
:103600008093B000C093B3000DC08091B000806281
:103610008093B000C093B40005C0C038D1050CF051
:10362000B5CFAFCFDF91CF911F9108958E3008F0C5
:103630008E508770806480937C0080917A008064D3
:1036400080937A0080917A0086FDFCCF809178008B
:103650002091790090E0922B08958F929F92AF92E3
:10366000BF92CF92DF92EF92FF926B017C010E949A
:10367000F2164B015C01C114D104E104F104F1F034
:103680000E94F216DC01CB0188199909AA09BB092D
:10369000883E9340A105B10570F321E0C21AD1081C
:1036A000E108F10888EE880E83E0981EA11CB11C89
:1036B000C114D104E104F10419F7DDCFFF90EF90BC
:1036C000DF90CF90BF90AF909F908F9008952FB7CD
:1036D000F8946091FC017091FD018091FE01909140
:1036E000FF012FBF0895CF93DF93EC0189899A8959
:1036F000AB89BC898D879E87AF87B88BCE010E942E
:103700000F0980ED97E0A0E0B0E08D839E83AF834A
:10371000B8870E94671B69877A878B879C87DF91B0
:10372000CF910895CF93DF93FC01C485D58586E4BE
:1037300090E0A0E0B0E089839A83AB83BC83898169
:103740009A81AB81BC818D839E83AF83B8870E94B1
:10375000671B69877A878B879C878FEF9FEFDC01D8
:103760008D879E87AF87B88B898B9A8BAB8BBC8BF1
:1037700085E791E09A8F898F18A21F8E1AA219A24D
:10378000DF91CF910895EF92FF920F931F93CF9304
:10379000DF93DC019096ED91FC919197008111816E
:1037A00084E090E00E94B12BEC011B830A83198313
:1037B00008830881198101151105B1F0F801E08035
:1037C000F180E114F10451F0D70116968D919C918E
:1037D00017970E94462CC7010E94462CF80182814F
:1037E000938199838883E5CFCE01DF91CF911F919B
:1037F0000F91FF90EF900C94462CAF92BF92CF9216
:10380000DF92EF92FF920F931F93CF93DF9300D03D
:1038100000D0CDB7DEB77C01162F633609F496C110
:1038200030F46E3541F1613609F463C0D7C16C36AE
:1038300009F47EC1623709F0D1C1DC0114968D9183
:103840009C9115970E94CB198C01F7018481958179
:103850000E94CB196C01D70114968D919C911597FC
:103860000E94CB199C01A601B801F70182A193A186
:103870000E94CC05EEC1DC0114968D919C911597A8
:103880000E94CB195C01F701848195810E94CB19BC
:103890006C01D7015E96ED90FC905F971C821B82B5
:1038A0001A8219828E010F5F1F4F9E012D5F3F4FBD
:1038B000AC01B501C7010E944812F701468157814A
:1038C0006B817C81808591850E943F18D701169677
:1038D0004D915C91179769817A811A968D919C918F
:1038E0001B970E943F18F701B182A082D382C28247
:1038F000B0C1DC0114968D919C9115970E94CB1953
:103900008C01F701848195810E94CB19012B09F06C
:10391000A0C1D70194960D911C919597892B09F41C
:103920009DC0012B09F095C189E390E00E94B12B65
:103930008C018AE793E1F8019187808713861286CC
:103940008EE49EE0958784871786168689E09EE040
:10395000918B808B138A128A87EA90E2958B848BF5
:10396000178A168A118E108E138E128E148E158E53
:1039700085E090E097A386A381E090E091A780A7DF
:1039800013A612A615A614A684EB90E091AB80AB0B
:103990008FEF90E093AB82AB178306838FEF9FEF9F
:1039A000978F868F91A380A393A382A315A214A2BD
:1039B00010AE17AA14AAD70195961C930E9394974C
:1039C00012968D919C9113979383828314968D9177
:1039D0009C91159795838483C8010E947D0781E09F
:1039E000F801848F158ED7019496CD90DC90959731
:1039F000F6011182108290960D911C91919784E0AE
:103A000090E00E94B12BDC011196DC92CE921396CD
:103A10001C921E921297D8011296ED91FC91139769
:103A200014962D913C911597309771F413969C93B1
:103A30008E93129711969C938E932F5F3F4F1596FE
:103A40003C932E93149705C193838283F80193834B
:103A500082832F5F3F4F35832483FBC001151105FF
:103A600009F4F7C0C8010E94A10781E0D8015D9662
:103A70008C935D975C961C92F701A4A0B5A0C0A0A2
:103A8000D1A0D6010D911C91F80101151105F1F19C
:103A9000D8018D919C918A159B05A1F5D6012D9198
:103AA0003C91119712968D919C91139702171307D1
:103AB00071F40817190721F413961C921E9212979D
:103AC000F80182819381D6018D939C9312C00817CF
:103AD000190741F413821282D6011396FC93EE93D8
:103AE000129707C0D80112968D919C9113979383DA
:103AF0008283C8010E94462CF6018481958101973A
:103B000095838483F80102811381BFCFD7019496F6
:103B10000D911C9195970115110509F49AC0F801B2
:103B2000868197810E94462CC8010E94462C91C034
:103B3000DC0114968D919C9115970E94CB1921E080
:103B4000892B09F420E0F70122A783C0DC01149639
:103B50008D919C9115970E94CB196C01D70190967D
:103B6000ED91FC9191970081118184E090E00E9499
:103B7000B12BFC01138302831183008300E010E06A
:103B8000408151814115510591F0DA012D913C910F
:103B9000D9018D919C918C159D0509F48901DA015B
:103BA00012968D919C91139791838083E9CFCF01D9
:103BB0000E94462C0115110509F44BC0F7018481C0
:103BC00095810E94CB19D8015C969C91992309F4A8
:103BD00040C0682FC8010E9467233BC0D701909660
:103BE000ED91FC919197C080D18084E090E00E949B
:103BF000B12B7C01FC01D382C282D182C082D70169
:103C0000CD90DC90C114D10499F0D6018D919C9196
:103C1000FC01248D222319F0612F0E946723D60115
:103C200012968D919C911397F70191838083E7CF32
:103C3000C7010F900F900F900F90DF91CF911F91C0
:103C40000F91FF90EF90DF90CF90BF90AF900C94CA
:103C5000462C0F900F900F900F90DF91CF911F91F6
:103C60000F91FF90EF90DF90CF90BF90AF900895AD
:103C7000EF92FF920F931F93CF93DF938C01FC0180
:103C8000C0A1D1A1209781F088819981E881F98133
:103C9000309739F022813381398328830E94462C62
:103CA000F3CFCE010E94462CF80182A193A10E947D
:103CB000462CF801C68DD78D209729F165EB71E070
:103CC00086E192E00E94FB22E884F984E114F10489
:103CD00031F0C7010E943216C7010E94462C63ECE6
:103CE00071E086E192E00E94FB22EA84FB84E11409
:103CF000F10431F0C7010E943216C7010E94462C20
:103D0000CE010E94462CF801C4A1D5A1209739F01C
:103D10008E819F810E94462CCE010E94462CF80184
:103D2000C6A1D7A1209781F188819981009711F0D0
:103D30000E94462C088919890115110531F0C80126
:103D40000E94AF23C8010E94462C0A891B890115D5
:103D5000110531F0C8010E94AF23C8010E94462C12
:103D60000C891D890115110531F0C8010E94AF238E
:103D7000C8010E94462CCE01DF91CF911F910F9177
:103D8000FF90EF900C94462CDF91CF911F910F91F3
:103D9000FF90EF9008958F929F92AF92BF92CF9233
:103DA000DF92EF92FF920F931F93CF93DF93EC017B
:103DB00062ED71E086E192E00E94FB2286E090E0F5
:103DC0000E94B12BFC011182108213821282158293
:103DD000148299A388A38CE090E00E94B12B8C01FF
:103DE00086E190E00E94B12B7C01CC24CA94DC2CAB
:103DF000D7011396DC92CE92129790E5892E912CE2
:103E00001F969C928E921E9751961C925197509697
:103E10001C92509753961C921E9252971B961C927E
:103E20001E921A9715961C921E92149724E1A22EA8
:103E3000B12C1996BC92AE921897F801F186E086E3
:103E400086E190E00E94B12BFC01D182C082D38236
:103E5000C28297868686118A108A138A128A1386EE
:103E6000128615821482B186A086D8011B969C9377
:103E70008E931A9783E090E0F7019183808361E04D
:103E80000E947B1AD8011896ED91FC91199785E054
:103E900090E09383828361E00E947B1AD8011A9696
:103EA000ED91FC911B9786E090E09183808361E027
:103EB0000E947B1AD8011A96ED91FC911B9789E01C
:103EC00090E09383828361E00E947B1AD801189668
:103ED000ED91FC91199788E290E0978786871A9672
:103EE000ED91FC911B979787868711961C921E92E5
:103EF00013961C921E9212971F8F0E8F8A819B81A0
:103F000017969C938E9316978CE090E00E94B12BAD
:103F10008C0128E030E047E050E064E070E00E946F
:103F200034071BA30AA382E090E00E94B12B2EE08D
:103F300030E0FC013183208399A788A71FA21EA22D
:103F40001DA21CA21CA61BA61DA620E030E040E07E
:103F500050E060E070E0C8010E94CC0581E08AA7D3
:103F600040E050E060E070E08E8D9F8DDF91CF915A
:103F70001F910F91FF90EF90DF90CF90BF90AF9087
:103F80009F908F900C941E13EF92FF920F931F93AC
:103F9000CF93DF93EC01E8A1F9A1848195811816F4
:103FA00019063CF5E080F18084E090E00E94B12B9E
:103FB0008C01DC011396FC92EE921297ED92FC922A
:103FC000F801E080F180E114F10481F0F7018081D3
:103FD0009181DC015C962C9121110E948B23F701C9
:103FE00082819381D8018D939C93EACFC8010E946E
:103FF000462C2AA58AA19BA12223A1F0EE8DFF8D3C
:1040000020813181A901455151094336510508F4F8
:1040100087C0445651094B33510508F086C02FEF35
:1040200030E002C020E030E040E050E060E070E0CE
:104030000E94CC05E8A5F9A580810E94161B28E8FE
:1040400033E1DC010E948B2A2FEF33E040E050E0A7
:104050000E94022EB901645C7940072E000C880B87
:10406000990B0E94E52C24EA30E74DE35EE30E94C1
:10407000FF2A20E030E04FE254E40E94A72B9DA5E8
:1040800018161CF50E8D1F8D911105C0D8018D914C
:104090009C919CA78BA7F801E280F38060817181DD
:1040A000072E000C880B990B0E94E52C23E333E3C9
:1040B00043E35FE30E94442D0E94712BA701C801D6
:1040C0000E941E1381E08DA73BC09923C9F18E8DFC
:1040D0009F8DDC01ED91FC912BA53CA5E217F30728
:1040E00011F41DA62DC02E1B3F0B37FD08C051E05B
:1040F00040E0232B09F450E0652F742F02C06FEFCE
:104100007FEFDC0112964D915C9113976E0F7F1F2C
:10411000DF91CF911F910F91FF90EF900C941E13A0
:1041200020E030E04FEF50E081CF253B31050CF42B
:1041300079CF20E030E040E050E06FEF70E078CFE2
:10414000DF91CF911F910F91FF90EF9008951F93F2
:10415000CF93DF93EC01162F70E080E090E04AE00F
:104160000E941C176FED71E086E192E00E94E6224A
:104170001230E9F068F41123B9F0113049F562EE1C
:1041800071E086E192E00E94FB2281E090E017C09E
:104190001430C1F090F01530D9F48C819D810E94CB
:1041A000CB199BAB8AAB14C082E090E008C0CE0173
:1041B000DF91CF911F910C94591383E090E09DA360
:1041C0008CA306C08C819D810E94CB1999AB88ABD2
:1041D000DF91CF911F910895CF92DF92EF92FF92DE
:1041E0000F931F93CF93DF936C017A018B01C0E093
:1041F000D0E0CE15DF0589F0D8016D918D01D60193
:10420000ED91FC910190F081E02DC6010995892B7B
:1042100011F47E0102C02196ECCFC701DF91CF914E
:104220001F910F91FF90EF90DF90CF900895089528
:1042300080E090E00895FC01538D448D252F30E0FF
:10424000842F90E0821B930B541710F0CF960895A3
:1042500001970895FC01918D828D981761F0828DF0
:10426000DF01A80FB11D5D968C91928D9F5F9F73AA
:10427000928F90E008958FEF9FEF0895FC01918D4C
:10428000828D981731F0828DE80FF11D858D90E0B9
:1042900008958FEF9FEF0895FC01918D228D892F56
:1042A00090E0805C9F4F821B91098F73992708953E
:1042B00086E192E00E944C2121E0892B09F420E064
:1042C000822F0895FC01848DDF01A80FB11DA35A30
:1042D000BF4F2C91848D90E001968F739927848F26
:1042E000A689B7892C93A089B1898C9180648C931D
:1042F000938D848D981306C00288F389E02D808108
:104300008F7D80830895EF92FF920F931F93CF9339
:10431000DF93EC0181E0888F9B8D8C8D981305C015
:10432000E889F989808185FD24C0F62E0B8D10E087
:104330000F5F1F4F0F731127E02E8C8DE8120CC0FA
:104340000FB607FCFACFE889F989808185FFF5CFA0
:10435000CE010E946221F1CF8B8DFE01E80FF11D8D
:10436000E35AFF4FF0820B8FEA89FB8980818062DC
:1043700007C0EE89FF896083E889F98980818064BC
:10438000808381E090E0DF91CF911F910F91FF90AA
:10439000EF900895CF93DF93EC01888D8823C9F0C7
:1043A000EA89FB89808185FD05C0A889B9898C913E
:1043B00086FD0FC00FB607FCF5CF808185FFF2CFD9
:1043C000A889B9898C9185FFEDCFCE010E94622129
:1043D000E7CFDF91CF91089580E090E0892B29F01D
:1043E0000E94582181110C94000008950E94AC2B6A
:1043F0000F931F93CF93DF938C01EB018BE70E9408
:104400005F1781E490E00E949817C8010E946A1724
:104410008CE20E945F17CE010E946A178DE7DF9140
:10442000CF911F910F910C945F171F920F920FB6AF
:104430000F9211242F933F938F939F93AF93BF932A
:104440008091FC019091FD01A091FE01B091FF01CE
:104450003091480323E0230F2D3720F40196A11D4E
:10446000B11D05C026E8230F0296A11DB11D2093A2
:1044700048038093FC019093FD01A093FE01B0934B
:10448000FF018091000290910102A0910202B0917F
:1044900003020196A11DB11D8093000290930102B9
:1044A000A0930202B0930302BF91AF919F918F91AD
:1044B0003F912F910F900FBE0F901F9018959091E4
:1044C0000001981324C0E6E1F1E0E4919FEF90939E
:1044D0000001E130B9F098F0E230C9F49091700039
:1044E0009D7F9093700091E09093B0009091B10007
:1044F000987F94609093B1001092B30008C010921E
:104500006E0005C090916F009D7F90936F0060E0FA
:104510000C942F1A1F920F920FB60F9211242F9303
:104520003F934F935F936F937F938F939F93AF933B
:10453000BF93EF93FF938091420390914303A09127
:104540004403B0914503892B8A2B8B2B51F1809129
:104550004103E0913F03F0914003908189278083DC
:104560008091420390914303A0914403B09145038D
:10457000181619061A061B06C4F48091420390917E
:104580004303A0914403B09145030197A109B109E8
:104590008093420390934303A0934403B093450355
:1045A00004C0809100010E945F22FF91EF91BF91B2
:1045B000AF919F918F917F916F915F914F913F91BB
:1045C0002F910F900FBE0F901F90189561157105D8
:1045D00079F0FB0101900020E9F73197AF01461B0C
:1045E000570BDC01ED91FC910280F381E02D0994E1
:1045F00080E090E008950F931F93CF93DF93EC0139
:104600000E94E6228C016FED71E0CE010E94E6224D
:10461000800F911FDF91CF911F910F9108951F92ED
:104620000F920FB60F9211242F933F934F935F93E6
:104630006F937F938F939F93AF93BF93EF93FF936A
:1046400086E192E00E946221FF91EF91BF91AF91CC
:104650009F918F917F916F915F914F913F912F919A
:104660000F900FBE0F901F9018951F920F920FB6CC
:104670000F9211242F938F939F93EF93FF93E091C9
:104680002602F09127028081E0912C02F0912D0208
:1046900082FD12C0908180912F028F5F8F732091D5
:1046A0003002821751F0E0912F02F0E0EA5EFD4FF8
:1046B000958F80932F0201C08081FF91EF919F9190
:1046C0008F912F910F900FBE0F901F901895DC01C6
:1046D0005496ED91FC91559756962D913C91579794
:1046E000309711F420FF16C0C9019595879516964D
:1046F0004D915C91179720FF0AC0DA01A80FB91FEE
:104700002D913C91E20FF31F0190F081E02D840F79
:10471000951F09940895DC011896ED91FC91199765
:104720001A962D913C911B97309711F420FF16C0DB
:10473000C9019595879516964D915C91179720FF25
:104740000AC0DA01A80FB91F2D913C91E20FF31FA7
:104750000190F081E02D840F951F09940895CF9367
:10476000DF93FC01C081D181209791F088819981EC
:10477000E881F981309739F02481358139832883A4
:104780000E94462CF3CFCE01DF91CF910C94462CA2
:10479000DF91CF9108956F927F928F929F92AF9207
:1047A000BF92CF92DF92EF92FF920F931F93CF931E
:1047B000DF9300D000D0CDB7DEB7682F853409F481
:1047C0009BC220F4813409F4BBC296C3863409F439
:1047D0005EC3833509F090C383EB92E00E94CB194E
:1047E0008C01E0904603F0904703C7010E94A107A7
:1047F00081E0F701858F148E8091460390914703E5
:104800000E94462C0131110508F060C2F801EC5CF1
:10481000FF4F0C94852A8EE190E00E94B12B3C0161
:104820000E944A1655C288E290E00E94B12B3C01DA
:10483000FC0111861086138612861586148617864B
:104840001686118A108A138A128A158A148A178A80
:10485000168A17821682118E108E138E128E158272
:10486000148213821282168E178E85E090E091A337
:1048700080A313A212A215A214A22AC289E290E078
:104880000E94B12B3C01BFEA8B2EBCE09B2EA12CD9
:10489000B12C12E8C12E18E0D12EE12CF12C0DE440
:1048A00011E020E030E040EC50E060E070E00E9479
:1048B0004B07F30116A215A213A212A214A210A66E
:1048C00017A277826682178E168E02C28EE390E060
:1048D0000E94B12B3C01FCEA8F2EF2E09F2EA12C0E
:1048E000B12CA0E6CA2EA8E0DA2EE12CF12C04E5CA
:1048F0001CE020E030E04FEB50E060E070E00E9410
:104900004B07F30112A213A214A215A2168E178E42
:1049100010A211A282E090E0A0E0B0E086A397A3ED
:10492000A0A7B1A78CE0EBE4F1E0D3019A96019047
:104930000D928A95E1F786E0E7E5F1E0D301D6969E
:1049400001900D928A95E1F796C180E290E00E9475
:10495000B12B3C0175E1872E7CE0972EA12CB12C68
:10496000EEE4CE2EE8E0DE2EE12CF12C02E311E0A5
:1049700020E030E04EEB50E0F2C080E290E00E9498
:10498000B12B3C0156ED852E5BE0952EA12CB12C70
:104990006CE3C62E68E0D62EE12CF12C07E111E085
:1049A00020E030E04DEB50E0DAC08AE290E00E9477
:1049B000B12B3C0139E7832E32E0932EA12CB12C90
:1049C00042E2C42E47E0D42EE12CF12C0BE217E09A
:1049D00020E030E04CEB50E017C080E390E00E9414
:1049E000B12B3C0199E5892E92E0992EA12CB12C96
:1049F00027EBC22E26E0D22EE12CF12C01ED10E0A7
:104A000020E030E040EC56E060E070E0C3010E943E
:104A10004B0729E030E04AE050E06BE070E0C30172
:104A20004E9627C188E390E00E94B12B3C0109E338
:104A3000802E02E0902EA12CB12C8AEFC82E85E0AA
:104A4000D82EE12CF12C01EC10E020E030E043E026
:104A500056E060E070E0C3010E944B0729E030E0BF
:104A60004AE050E06BE070E0C3014E960E943407CC
:104A7000F3017782668212A613A614A615A616A6BF
:104A800017A610AA11AA24C189E590E00E94B12BB3
:104A90003C018BEB90E0F3019187808713861286AF
:104AA0008AEB90E095878487178616868CE595E0DB
:104AB000918B808B138A128A89E193E0958B848B8A
:104AC000178A168A118E108E138E128E148E158EE2
:104AD00069E070E0C3014E960E945F05CCC08BE593
:104AE00090E00E94B12B3C01B9EB8B2EB0E09B2EE5
:104AF000A12CB12C19E0C12E13E0D12EE12CF12C08
:104B00000CE013E020E030E047EF51E060E070E0BF
:104B10000E944B0769E070E0C3014E960E945F055A
:104B2000F30177826682E75AFF4F11821082D0C06C
:104B300080E290E00E94B12B3C01F7E68F2EF9E075
:104B40009F2EA12CB12CA2E1CA2EA8E0DA2EE12CD6
:104B5000F12C03EE10E020E030E048EB50E060E0A4
:104B600070E0C3010E944B0786C086E290E00E947D
:104B7000B12B3C0170E8872E71E1972EA12CB12C4E
:104B8000EAEBCE2EE1E1DE2EE12CF12C09EF11E172
:104B900020E030E048E05EE060E070E00E944B071B
:104BA000F3017782668212A213A214A215A2178EB5
:104BB000168E11A210A28CC082E390E00E94B12B4D
:104BC0003C0154E0852E5EE0952EA12CB12C65E0D1
:104BD000C62E6EE0D62EE12CF12C06E01EE020E081
:104BE00030E047E05EE060E070E00E944B07F301D8
:104BF00017A216A217A616A666C080E290E00E9431
:104C0000B12B3C0132E5832E3FE0932EA12CB12C39
:104C100049EBC42E4FE0D42EE12CF12C0FE61EE020
:104C200020E030E043E05EE09ACF8FE290E00E9427
:104C3000B12B3C0193E1892E9FE0992EA12CB12C40
:104C400021E9C22E2FE0D22EE12CF12C0BEC1FE03B
:104C500020E030E04FE150E160E070E0C3010E94ED
:104C60004B0729E030E04AE050E06BE070E0C30120
:104C70004F960E943407F30126C08EE290E00E9416
:104C8000B12B3C0184EC9FE1F3019187808713866F
:104C900012868BEC9EE1958784871786168688E3BB
:104CA0009EE1918B808B138A128A8DEF9BE1958B0D
:104CB000848B178A168A83EC9BE1918F808F138EE9
:104CC000128E148E158E7782668202C0612C712C32
:104CD00080E192E0F3019383828383EB92E09583FA
:104CE00084837092470360924603C3010E947D074C
:104CF00081E0F301848F22C00091460310914703A5
:104D0000C8010E94A107FF24F394F801F58E148EC8
:104D100080914603909147030E94462C8EE190E0DB
:104D20000E94B12B5C010E944A16B0924703A092E8
:104D30004603C5010E947D07F501F48E158EE5C07E
:104D400083EB92E04B835C830E94CB198C0183EB55
:104D500092E00E94CB193C01012B09F452C083EB75
:104D600092E00E94CB198C0184E190E00E94B12B6B
:104D70005C01FC0111861086118A108AE090040201
:104D8000F0900502012E000C220B330B4B815C814D
:104D9000F2E06F167104B9F054F461147104E1F09B
:104DA000E1E06E167104D1F44FE050E017C0F4E07A
:104DB0006F16710471F054F0E5E06E16710471F431
:104DC00043E150E00BC040E150E008C041E150E059
:104DD00005C042E150E002C04EE050E084E0C82E41
:104DE00082E0D82EB301C5010E94300B85EF9DE013
:104DF000F5019587848717861686C5010E94BE1720
:104E000084C0E0900802F090090200E010E00E1566
:104E10001F050CF07AC080910A0290910B02009756
:104E200061F48091060290910702009721F06EEAEA
:104E300071E00E94FB220E947228FC01A080B180D8
:104E4000C280D3800E94462CD0920B02C0920A02EC
:104E50008091080290910902019790930902809332
:104E60000802F501868197818615970551F4A114F2
:104E7000B10451F0C5010E942408C5010E94462CCE
:104E800003C0C5010E94BE170F5F1F4FC0CF8BE745
:104E90000E945F1786E490E00E94981720914903D2
:104EA00030914A03CE0101962115310519F48D5434
:104EB000934018C0AC01421B530BE0914B03F0919F
:104EC0004C0380E090E0309759F09C012E5F3F4FFB
:104ED00080819181820F931F0280F381E02DF3CFB7
:104EE000840F951F9A83898389819A810E946A170A
:104EF0008DE70E945F1709C0809146039091470398
:104F0000FC01248D21110E9467230F900F900F90B8
:104F10000F90DF91CF911F910F91FF90EF90DF9055
:104F2000CF90BF90AF909F908F907F906F9008959B
:104F3000CF92DF92EF92FF920F931F93E82FF92FFA
:104F400005C0015011092109310961F190819623B1
:104F50009417B9F305C0015011092109310911F164
:104F6000908196239413F7CFC12CD12CE12CF12CF6
:104F70000AC08FEFC81AD80AE80AF80A0C151D05EE
:104F80002E053F0579F080818623841791F36C2DDF
:104F90007D2D8E2D9F2D1F910F91FF90EF90DF9013
:104FA000CF90089560E070E080E090E01F910F9155
:104FB000FF90EF90DF90CF9008950F931F93CF93C2
:104FC000DF93E3E3F3E01382128288EE93E0A0E044
:104FD000B0E084839583A683B78323E231E03183F5
:104FE0002083C6E1D2E01B821A828C839D83AE832C
:104FF000BF8385E391E09983888385EC90E09D876A
:105000008C8784EC90E09F878E8780EC90E0998B72
:10501000888B81EC90E09B8B8A8B82EC90E09D8B5F
:105020008C8B86EC90E09F8B8E8B198E1A8E1B8E4C
:105030001C8E03EB12E0F8011282138281E084835C
:105040008BE787838DE7808785E090E09287818773
:10505000138614861586168684E090E00E94B12B94
:1050600027E431E0FC0131832083D383C283F8013C
:10507000918380838BEC93E2908B878784E490E02C
:105080000E94B12BFC01E05CFF4F10823196108230
:105090003196108231962CE22083F8019683858325
:1050A000A0E1B2E011961C921E9213961C921E92E1
:1050B000129715961C921E921497E4E0F2E0158266
:1050C0001482178216821186108613821282B1838F
:1050D000A08388EF91E293878287DF91CF911F9120
:1050E0000F91089561E08DE00E947B1A61E08DE0F0
:1050F0000E942F1A6AEF70E080E090E00E942D1B62
:1051000060E08DE00E942F1A6AEF70E080E090E08E
:105110000E942D1BEBCF789484B5826084BD84B54A
:10512000816084BD85B5826085BD85B5816085BDA2
:1051300080916E00816080936E001092810080915A
:1051400081008260809381008091810081608093E2
:105150008100809180008160809380008091B10007
:1051600084608093B1008091B00081608093B00032
:1051700080917A00846080937A0080917A008260C6
:1051800080937A0080917A00816080937A00809188
:105190007A00806880937A001092C100E091260224
:1051A000F091270282E08083E0912202F0912302B5
:1051B0001082E0912402F09125028FEC80831092FE
:1051C0002E02E0912A02F0912B0286E08083E0918A
:1051D0002802F0912902808180618083E091280279
:1051E000F0912902808188608083E0912802F0910B
:1051F0002902808180688083E0912802F091290251
:1052000080818F7D80838EE190E00E94B12BEC0144
:105210000E944A16D0934703C0934603D1E015E09D
:105220000AE08091100290911102909315028093F0
:1052300014028091140290911502009709F4B1C0F4
:10524000DC012C9120FF87C01D964D915D916D91E1
:105250007C915097452B462B472B19F40E94A208AE
:105260007AC00E94671BA0911402B091150211969A
:10527000CD90DD90ED90FC90149719964D905D9037
:105280006D907C901C9715968D909D90AD90BC90E4
:105290001897AB01BC0144195509660977094815EF
:1052A00059056A057B0508F456C01D964D915D9120
:1052B0006D917C915097141615061606170684F406
:1052C0001D964D915D916D917C9150974150510982
:1052D000610971091D964D935D936D937C93509771
:1052E00055964D915D916D917C9158974F5F5F4FB1
:1052F0006F4F7F4F55964D935D936D937C93589769
:1053000015964D915D916D917C91189719968D90A0
:105310009D90AD90BC901C97480D591D6A1D7B1D3A
:1053200019964D935D936D937C931C971596CD9232
:10533000DD92ED92FC9218975996ED91FC915A9757
:10534000309749F05D966D917C915E975B968D915B
:105350009C915C970995E0911402F091150285A14A
:1053600096A163CF8091B3029091B402C13049F508
:10537000DC01ED91FC910280F381E02D0995809391
:10538000B5029091BA0289130CC01093B7020E9423
:10539000671B6093BE027093BF028093C00290931C
:1053A000C1028091B3029091B402DC01ED91FC91B5
:1053B0000190F081E02D0995C091B702892B91F6FB
:1053C00060C0C53019F5DC01ED91FC910280F381DC
:1053D000E02D09958093B60299272091BA02022EFA
:1053E000000C330B8217930719F4C093B7022DC03A
:1053F0002091BB02022E000C330B8217930719F485
:10540000D093B702CECF0093B702CBCFCA3049F6C4
:10541000DC01ED91FC910280F381E02D09958093F0
:10542000B5029091BA02891303C01093B7020DC060
:105430009091BB02891316C0D093B702E091C202CB
:10544000F091C3028091B60209958091B8029091C3
:10545000B902FC01E05CFF4F108231961082319658
:1054600010829FCF2091B8023091B902F901E05C1F
:10547000FF4F9081D901A90FB11D8C939F5F90833D
:1054800090CFC130D1F00E94671BC090BA020C2CA3
:10549000000CDD08EE08FF08AB01BC014C195D09EA
:1054A0006E097F098091BC029091BD02A0E0B0E03E
:1054B000481759076A077B0760F08091460390916F
:1054C0004703FC01248D21110E948B230E94EC21B3
:1054D000A8CED093B702F1CFCF93DF93C0910A0249
:1054E000D0910B02CD2B71F080910A0290910B02AA
:1054F000FC01C281D3810E94462CD0930B02C09341
:105500000A02F0CFDF91CF910895EE0FFF1F0590B3
:10551000F491E02D09940E94432EB7FF0895821B59
:10552000930B08955058BB27AA270E94AA2A0C94CF
:10553000C82D0E94BA2D38F00E94C12D20F039F4F8
:105540009F3F19F426F40C94B72D0EF4E095E7FB79
:105550000C94B12DE92F0E94D92D58F3BA17620788
:1055600073078407950720F079F4A6F50C94FB2DBA
:105570000EF4E0950B2EBA2FA02D0B01B90190016E
:105580000C01CA01A0011124FF27591B99F0593FB2
:1055900050F4503E68F11A16F040A22F232F342FFA
:1055A0004427585FF3CF469537952795A795F04048
:1055B0005395C9F77EF41F16BA0B620B730B840B5D
:1055C000BAF09150A1F0FF0FBB1F661F771F881F15
:1055D000C2F70EC0BA0F621F731F841F48F487956D
:1055E00077956795B795F7959E3F08F0B0CF93955F
:1055F000880F08F09927EE0F9795879508950E94D8
:10560000132B0C94C82D0E94C12D58F00E94BA2D66
:1056100040F029F45F3F29F00C94B12D51110C9406
:10562000FC2D0C94B72D0E94D92D68F39923B1F36A
:10563000552391F3951B550BBB27AA2762177307B8
:10564000840738F09F5F5F4F220F331F441FAA1F4C
:10565000A9F335D00E2E3AF0E0E832D09150504008
:10566000E695001CCAF72BD0FE2F29D0660F771FB6
:10567000881FBB1F261737074807AB07B0E809F09C
:10568000BB0B802DBF01FF2793585F4F3AF09E3F21
:10569000510578F00C94B12D0C94FC2D5F3FE4F390
:1056A000983ED4F3869577956795B795F7959F5F64
:1056B000C9F7880F911D9695879597F90895E1E0B0
:1056C000660F771F881FBB1F621773078407BA070F
:1056D00020F0621B730B840BBA0BEE1F88F7E0956A
:1056E00008950E94782B6894B1110C94FC2D0895B4
:1056F0000E94E12D88F09F5798F0B92F9927B75154
:10570000B0F0E1F0660F771F881F991F1AF0BA9565
:10571000C9F714C0B13091F00E94FB2DB1E008959B
:105720000C94FB2D672F782F8827B85F39F0B93F8D
:10573000CCF3869577956795B395D9F73EF4909518
:105740008095709561957F4F8F4F9F4F08950E9470
:10575000202D08F48FEF089581E090E0F8940C94E8
:10576000522ECF93DF938230910510F482E090E0C7
:10577000E0914B03F0914C0320E030E0C0E0D0E03A
:10578000309711F14081518148175907C0F04817EF
:10579000590761F482819381209719F09B838A8352
:1057A0002BC090934C0380934B0326C021153105E9
:1057B00019F04217530718F49A01BE01DF01EF01F7
:1057C0000280F381E02DDCCF2115310509F1281B82
:1057D000390B2430310590F412968D919C911397DA
:1057E0006115710521F0FB019383828304C09093BE
:1057F0004C0380934B03FD01329644C0FD01E20F40
:10580000F31F81939193225031092D933C933AC019
:105810002091490330914A03232B41F42091030145
:105820003091040130934A032093490320910101F0
:10583000309102012115310541F42DB73EB7409159
:10584000050150910601241B350BE0914903F091AD
:105850004A03E217F307A0F42E1B3F0B2817390762
:1058600078F0AC014E5F5F4F2417350748F04E0FBC
:105870005F1F50934A03409349038193919302C061
:10588000E0E0F0E0CF01DF91CF9108950F931F93F7
:10589000CF93DF93009709F48CC0FC0132971382F9
:1058A000128200914B0310914C030115110581F4F4
:1058B00020813181820F931F2091490330914A0347
:1058C0002817390779F5F0934A03E093490371C02B
:1058D000D80140E050E0AE17BF0750F412962D916A
:1058E0003C911397AD012115310509F1D901F3CF91
:1058F0009D01DA013383228360817181860F971FB6
:105900008217930769F4EC0128813981260F371F2C
:105910002E5F3F4F318320838A819B8193838283D3
:10592000452B29F4F0934C03E0934B0342C01396AC
:10593000FC93EE931297ED01499159919E01240F2A
:10594000351FE217F30771F480819181840F951F51
:10595000029611969C938E938281938113969C93C9
:105960008E931297E0E0F0E0D80112968D919C9111
:105970001397009719F0F8018C01F6CF8D919C9147
:1059800098012E5F3F4F820F931F20914903309162
:105990004A032817390769F4309729F410924C0309
:1059A00010924B0302C01382128210934A03009399
:1059B0004903DF91CF911F910F9108950E94202DEF
:1059C00008F481E00895E89409C097FB3EF49095AF
:1059D0008095709561957F4F8F4F9F4F9923A9F0C8
:1059E000F92F96E9BB279395F69587957795679557
:1059F000B795F111F8CFFAF4BB0F11F460FF1BC09B
:105A00006F5F7F4F8F4F9F4F16C0882311F096E92D
:105A100011C0772321F09EE8872F762F05C06623DB
:105A200071F096E8862F70E060E02AF09A95660F94
:105A3000771F881FDAF7880F9695879597F908954D
:105A4000990F0008550FAA0BE0E8FEEF161617068F
:105A5000E807F907C0F012161306E407F50798F0F7
:105A6000621B730B840B950B39F40A2661F0232B10
:105A7000242B252B21F408950A2609F4A140A6958C
:105A80008FEF811D811D08950E94572D0C94C82D04
:105A90000E94BA2D38F00E94C12D20F0952311F0FC
:105AA0000C94B12D0C94B72D11240C94FC2D0E9454
:105AB000D92D70F3959FC1F3950F50E0551F629F4C
:105AC000F001729FBB27F00DB11D639FAA27F00D57
:105AD000B11DAA1F649F6627B00DA11D661F829F7E
